:1000000000040020FD4B0000E54B0000CD4B00003C
:10001000B54B00009D4B0000854B00000000000028
:10002000000000000000000000000000A9DB01004B
:100030000000000000000000FDDC010039DD0100CF
:100040009D47040081470400000000007D46040035
:10005000A148040000000000000000002549040041
:100060000000000000000000000000000000000090
:1000700000000000000000006946040000000000CD
:10008000FFFFFFFFFFFFFFFFFFFFFFFF000010006C
:1000900000001D0012070906FFFFFFFFC9BDBEB02B
:1000A00006070000FFFFFFFFFFFFFFFFFFFFFFFF4F
:1000B000FFFFFFFFFFFFFFFFFFFFFFFFFFFFFFFF50
:1000C000FFFFFFFFFFFFFFFFFFFFFFFFFFFFFFFF40
:1000D000FFFFFFFFFFFFFFFFFFFFFFFFFFFFFFFF30
:1000E000FFFFFFFFFFFFFFFFFFFFFFFFFFFFFFFF20
:1000F000FFFFFFFFFFFFFFFFFFFFFFFFFFFFFFFF10
:10010000704700BF00000000000000000000000079
:100110000000000000000000000000002854030060
:100120000700000000000000ED280000305403002C
:1001300050540300C432040003000000010000001A
:10014000C1D40100C8320400F4320400E8330400D2
:10015000060000000100000035DB0100F033040060
:10016000143404003C3404000600000001000000C8
:1001700045DB01004434040058340400AC3704006B
:100180000400000001000000C1E50100B4370400D4
:10019000F037040094380400030000000000000061
:1001A000D5170200B8390400CC390400983804008F
:1001B00004000000010000000D190200243A0400B0
:1001C000443A04000C3C040004000000010000005C
:1001D000F9270200143C04004C3C0400FC3C0400E1
:1001E000030000000200000055280200003D04004A
:1001F000403D0400D43F0400050000000100000061
:1002000081370200DC3F04001040040000000000C1
:1002100000000000000000000000000000000000DE
:100220000000000041F6B833C2F200031A780AB9A0
:1002300001201870704700BF41F6A430C2F20000E0
:1002400008B503682BB140F20003C0F2000303B10C
:10025000984708BD002311F0010F1A4638D00378E3
:1002600013F0010F00F0E7805B0883F08C0313F0BC
:10027000010F00F0DE805B0883F08C0212F0010FAA
:1002800000F0D580520882F08C0212F0010F00F0CD
:10029000CC80530883F08C0212F0010F00F0C38071
:1002A000520882F08C0212F0010F00F0BA8053085D
:1002B00083F08C0212F0010F00F0B180520882F03E
:1002C0008C0212F0010F40F0A48052080139012382
:1002D00000295ED010F803C082EA0C0212F0010F70
:1002E00040F09380520812F0010F72D1520812F0C0
:1002F000010F74D1520812F0010F76D1520812F09A
:10030000010F78D1520812F0010F7AD1520812F081
:10031000010F5AD1520812F0010F54D0520882F046
:100320008C02013310F803C0013982EA0C0212F08A
:10033000010F46D0520882F08C0212F0010F3ED01D
:10034000520882F08C0212F0010F36D0520882F06F
:100350008C0212F0010F2ED0520882F08C0212F0A3
:10036000010F26D0520882F08C0212F0010F12D039
:10037000520882F08C0212F0010F10D0520882F065
:100380008C0212F0010F0ED15208013301390029FD
:10039000A0D1D0B27047520812F0010FEED152082E
:1003A00012F0010FF0D0520882F08C0201330139B3
:1003B000EDE75208D9E75208D1E75208C9E75208D9
:1003C000C1E75208B9E75208ABE7520882F08C0245
:1003D000A1E7520882F08C0212F0010F8AD0520875
:1003E00082F08C0212F0010F88D0520882F08C0249
:1003F00012F0010F86D0520882F08C0212F0010F29
:1004000084D0520882F08C0281E7520882F08C027C
:1004100069E7530883F08C020139012358E7520839
:100420004FE7520846E752083DE7520834E75208C2
:100430002BE75A0822E75B0819E700BF022806D815
:1004400044F68473C0F2030353F820007047002081
:10045000704700BF10B540F2044482B090200422DF
:100460004FF48033C2F2000401A9236044F05AFB28
:1004700000280BDB2068019A4FF4804113181846BE
:10048000236044F037FB012002B010BD0020FBE7E1
:1004900030B501EB410185B000EB81150C222846F7
:1004A00001A944F03FFB002869DB41F6BC34C2F2ED
:1004B0000004592205F10C00214644F033FB0028CA
:1004C0005DDB0022134621E05B0813F0010F28D109
:1004D0005B0813F0010F2AD15B0813F0010F2CD138
:1004E0005B0813F0010F2ED15B0813F0010F30D120
:1004F0005B0813F0010F32D15B0813F0010F34D009
:1005000001325908592A81F08C0332D0A05C434053
:1005100013F0010FD8D05B0883F08C0313F0010FA8
:10052000D6D0590881F08C0313F0010FD4D05808AD
:1005300080F08C0313F0010FD2D05B0883F08C03A2
:1005400013F0010FD0D0590881F08C0313F0010F84
:10055000CED0580880F08C0313F0010FCCD05B088C
:1005600083F08C0313F0010FCAD101325B08592AC2
:10057000CCD19DF80FC05FFA83FEF44502D0002075
:1005800005B030BD41F6BC31C2F20001002010F0D0
:10059000F5F9003818BF0120F2E700BF70B544F646
:1005A0009875C0F20305284641F6BC34C2F2000437
:1005B00002F06AF944F6BC702178C0F2030002F040
:1005C00063F944F6D0706178C0F2030002F05CF980
:1005D00044F6E070A178C0F2030002F055F944F649
:1005E000F070C0F2030002F04FF92846BDE87040F9
:1005F00002F04AB92DE9F04F002389B083460291F9
:1006000003600392002A40F0908014230B7040F2A4
:1006100004474FF0FF31C2F2000701914FF000088C
:1006200005AC3A684FEA0836B01821460C2244F06F
:1006300079FA002864DB44F6F471C0F20301204625
:1006400004222CF07BFB0546002859D1DDF818A0C8
:100650009DF81E9038680C2233182146581944F032
:1006600061FA44F6F47104220028C0F20301204626
:100670003BDB2CF063FB05F1C00321460C22A0BB41
:100680003868DDF818A03018C0189DF81E9044F0A6
:1006900049FA44F6F47104220028C0F2030120460E
:1006A00023DB2CF04BFB05F5C07321460C2205F52E
:1006B0001075D0B93868DDF818A03018C0189DF84A
:1006C0001E9044F02FFA44F6F47104220028C0F280
:1006D0000301204609DB2CF031FB30B9B5F57C6F06
:1006E000DDF818A09DF81E90B4D1DBF8001051453C
:1006F0009FBF029ACBF800A082F80090CDF804804A
:1007000008F10108B8F1040F8BD1019AB2F1FF3F53
:1007100008BF4FF4405003D0039B4BB1019908032D
:100720003A68801809B0BDE8F08F029803706EE750
:10073000029E14203070019D002D56D0019A511E4A
:100740000E03DDF808A0002538680C22331858196C
:10075000214644F0E7F940F2044844F6F4710422DB
:100760000028C2F20008C0F20301204640DB2CF052
:10077000E5FA05F1C00321460C2200283ED19DF880
:100780001EC08AF800C038683018C01844F0CAF992
:1007900044F6F47104220028C0F20301204627DB4E
:1007A0002CF0CCFA05F5C07321460C2205F5107526
:1007B00020BB9DF81EE08AF800E038683018C018A9
:1007C00044F0B0F944F6F47104220028C0F20301A9
:1007D00020460DDB2CF0B2FA80B99DF81E30B5F53D
:1007E0007C6F8AF80030AFD198E74FF44056A8E705
:1007F000D8F80010019A01EB023093E7019B18032F
:100800008EE700BFF0B5002341F6BC3516469DB01B
:1008100004468E46C2F200051A4621E0520812F044
:10082000010F28D1520812F0010F2AD1520812F0FC
:10083000010F2CD1520812F0010F2ED1520812F0E4
:10084000010F30D1520812F0010F32D1520812F0CC
:10085000010F34D001335108582B81F08C0232D073
:10086000E95C4A4012F0010FD8D0520882F08C02A5
:1008700012F0010FD6D0500880F08C0212F0010F58
:10088000D4D0570887F08C0212F0010FD2D0510853
:1008900081F08C0212F0010FD0D0520882F08C024D
:1008A00012F0010FCED0500880F08C0212F0010F30
:1008B000CCD0570887F08C0212F0010FCAD1013357
:1008C0005208582BCCD1002385F858209C46EF5C69
:1008D0008CEA0700420810F0010F18BF82F08C026A
:1008E0004FEA520C12F0010F18BF8CF08C0C4FEA3B
:1008F0005C011CF0010F18BF81F08C014F0811F052
:10090000010F18BF87F08C07780817F0010F18BF88
:1009100080F08C00420810F0010F18BF82F08C02AA
:100920004FEA520C12F0010F18BF8CF08C0C1CF027
:10093000010F4FEA5C0C18BF8CF08C0C0133592B63
:10094000C5D101AD45F24D6741F6BC31C3F6310763
:10095000C2F200011A4605F10C000197CDF808E03B
:100960008DF80FC0ADF80C308DF80E602CF018FA31
:10097000B6B9042220461BA944F0D4F89DF86C3087
:10098000FF2B11D020464FF4805144F0B3F820469D
:100990002946652217F01CFBC043C00F1DB0F0BDF7
:1009A000C02202FB0640F3E79DF86DE0BEF1FF0FA9
:1009B000E8D19DF86E10FF29E4D19DF86FC0BCF11D
:1009C000FF0FDFD1E3E700BFF0B5142385B040F29D
:1009D00004440025902004228DF80F30C2F2000458
:1009E0004FF4803301A92360029544F09BF8A8429C
:1009F000B8BF284667DB206801992A460F1802A86D
:100A00000DF10F012760FFF7F5FD029B074633B19B
:100A1000226890420CBF00F54057A7F580579DF81B
:100A20000F100133481CC2B2152A8DF80F204CD08C
:100A3000194638460293FFF7E5FE0246002841D1E9
:100A400020683D1A2B0B5D1E2AD44FF6FF71C0F2B1
:100A50000F015E18360315F0010F15D13018002272
:100A60000299FFF7CFFEA6F58056024650BB013D26
:100A700013D423680299F018FFF7C4FE10BB013DA0
:100A8000A6F580562068E9E730180299FFF7BAFE0C
:100A9000C0B9013DA6F58056F4D520683A1A130B6B
:100AA000032B1ED8032504E02068391AB5EB113F4B
:100AB00017D300EB053002990022013DFFF7A2FE9B
:100AC0000028F1D0012005B0F0BD002219463846BB
:100AD0008DF80F200293FFF795FE02460028AFD055
:100AE000F0E744F6FC70C0F2030001F0CDFE0020F8
:100AF000E9E700BF10B5002341F6BC32C2F20002A4
:100B00009C46D45C8CEA040C1CF0010F4FEA5C0C90
:100B100018BF8CF08C0C1CF0010F4FEA5C0C18BF56
:100B20008CF08C0C1CF0010F4FEA5C0C18BF8CF0A1
:100B30008C0C1CF0010F4FEA5C0C18BF8CF08C0C75
:100B40001CF0010F4FEA5C0C18BF8CF08C0C1CF0F1
:100B5000010F4FEA5C0C18BF8CF08C0C1CF0010FDD
:100B60004FEA5C0C18BF8CF08C0C1CF0010F4FEAA4
:100B70005C0C18BF8CF08C0C0133582BC1D10128B0
:100B800082F858C019D003D303280BD0084610BDF3
:100B900041F6BC31C2F2000100205922BDE81040EC
:100BA0000FF0ECBE41F6BC31C2F200010020592228
:100BB0000FF0E4FE01460028E8D0BDE8104003E74E
:100BC0002DE9F04145F2140041F6BC3484B0C2F284
:100BD0000004C0F2030001F057FE21465922002014
:100BE0000FF092FE002394F858101A4621E05208A4
:100BF00012F0010F28D1520812F0010F2AD1520829
:100C000012F0010F2CD1520812F0010F2ED1520810
:100C100012F0010F30D1520812F0010F32D15208F8
:100C200012F0010F34D001335008592B80F08C02A0
:100C300032D0E05C424012F0010FD8D0520882F06E
:100C40008C0212F0010FD6D0500880F08C0212F006
:100C5000010FD4D0520882F08C0212F0010FD2D0D2
:100C6000500880F08C0212F0010FD0D0520882F0B0
:100C70008C0212F0010FCED0500880F08C0212F0DE
:100C8000010FCCD0520882F08C0212F0010FCAD1B1
:100C900001335208592BCCD15FFA82FC61454BD00D
:100CA000593B40F20445902004220293C2F2000511
:100CB0004FF4803301A92B6043F034FF002825DB7B
:100CC0002968019A02A853180DF10F0101222B6027
:100CD000FFF790FC02998046002930D12868042251
:100CE000694600F5405043F01DFF00280EDB9DF8DB
:100CF00000E0BEF1FF0F04D19DF801C0BCF1FF0F71
:100D000004D028684FF4804143F0F4FE324B1A229D
:100D100093E8030084E80300002130482CF064F9D4
:100D2000002119232E48362223722CF05DF95A2116
:100D30002170503984F8541004B0BDE8F0819DF85A
:100D40000F10FFF7A5FB0028F6D12868C0EB0803B9
:100D50001E0B032E28D8370316F0010F0BD1C01934
:100D60001421FFF795FB0028E6D10136032E07F585
:100D7000805716D82868C0191421FFF789FB01365F
:100D800007F5805714210028D6D1032E09D82B68E7
:100D90000136D819FFF77CFB0028CDD107F5805725
:100DA000E8E72868C0EB0803002607E0FFF770FBC0
:100DB0000028C1D128680136C0EB08031421B6EB26
:100DC000133F00EB0630F1D345F22400C0F20300DC
:100DD00001F05AFD9AE700BF904F0300C41B0020AA
:100DE000DE1B002030B545F2786143F24814C1F2B1
:100DF0003421C2F200044FF6FF7085B02160C0F2CA
:100E0000010017F093FB4FF6FF70C0F2030017F0DC
:100E1000B5FB1AF039F843F24C134CF6CC42C2F24F
:100E20000003C1F234221A600FF09CF94FF4FA71FA
:100E300002200FF057FB43F08FFE002017F016FE44
:100E4000012017F0D9FB18F0ABF801200AF00CFBD9
:100E500001200BF0B5FB01200CF074FD00220123F2
:100E600008214FF4E1301AF045FD0FF029FF05F09D
:100E7000C9FE06F013FBFFF7A3FE1CF007FB0FF003
:100E80001FFF22F0C5FA00200321002422F01AFAE5
:100E900041F6184540F63D7045F240014FF0020C16
:100EA000C2F20005C0F203014FF4A0622346C0F273
:100EB0000000CDF800C001950294039422F02AF9B5
:100EC00040F6257045F24C01C0F2030104354FF4A1
:100ED000A06223464FF0010CC0F200000195CDF84E
:100EE00000C00294039422F015F942F6A10045F2E5
:100EF00058010325C0F20000C0F2030123464FF45D
:100F00003472009501940294039422F003F945F29F
:100F10006000C0F2030001F0B7FC4FF6FF7022F052
:100F200059FEF4E708B540F208404EF29551C2F27E
:100F30000000C0F201011DF027F9F4E74FF48850DA
:100F400008B51DF0B1FD4FF4A0501DF0ADFD40F20D
:100F500008404EF24151C2F20000C0F201011DF002
:100F6000CFF8F4E743F25813C2F20003D87C70477D
:100F7000704700BF2DE9F00F0B46002900F0848078
:100F800043F25812C2F20002157841F62844A5F146
:100F9000040C5FFA8CFC01F1FF39BCF1020FC2F2C4
:100FA0000004C9F3C00940F2E73541F6991643F24F
:100FB000333744F6A54846F2676A88BFB0F9002087
:100FC00002D8B0F900205200AA4260DC0022227050
:100FD00008221021934257D9B9F1000F2ED030F9D1
:100FE0000190BCF1020F98BF4FEA4909A945DCBF47
:100FF0004FF0000984F800901CDDB145DCBF4FF0D4
:10100000010984F8009015DDB945DCBF4FF00209F5
:1010100084F800900EDDC145DCBF4FF0030984F871
:10102000009007DDD145DCBF4FF0040B84F800B021
:1010300000F38A8008321031934225D99946435EE5
:10104000BCF1020F98BF5B00AB4239DC0023237078
:1010500010310832BCF1020F88BF435E01D8435EF5
:101060005B00AB4225DDB3422FDDBB4239DD43459A
:1010700043DD5345DCBF4FF0040B84F800B052DC75
:10108000083210319145DAD8BDE8F00F7047B2420E
:1010900046DDBA4252DD424553DD5245DCBF0422F3
:1010A000227095DD48F2010B5A45DCBF0521217005
:1010B0008EE708320023103191452370BFD8E3E753
:1010C000B34209DC01232370C2E708320123103147
:1010D00091452370B3D8D7E7BB4209DC02232370C4
:1010E000B6E708320223103191452370A7D8CBE729
:1010F000434509DC03232370AAE708320323103198
:10110000914523709BD8BFE75345DCBF0423237070
:101110009EDD48F2010B5B45DCBF0523237097E79A
:101120000121217054E748F2010B5B45DCBF052328
:10113000237008321031914581D8A5E70222227030
:1011400046E70321217043E748F2010BD945DCBF94
:101150004FF0050984F800906CE700BF43F2581087
:10116000C2F20000037D3BB141F62843C2F2000306
:101170005A780AB901215970704700BF43F25810DC
:10118000C2F2000090F8D8303BB141F62843C2F2D9
:1011900000039A780AB901219970704773B143F23C
:1011A0005810C2F2000090F834313BB141F62843A8
:1011B000C2F20003DA780AB90121D970704700BF82
:1011C00040F25C43C2F2000301225A701A70704769
:1011D00010B440F25C43C2F200035A78CAB91878DE
:1011E000B8B943F25812C2F2000292F800C0BCF142
:1011F000030F1AD041F62841C2F200018C8841F653
:101200002840C2F2000034B9BCF1030F1AD0012209
:101210005A7010BC704792F83441002CF4D0C47856
:10122000002CF1D10124C470EEE7117D0029E1D03A
:1012300041F62841C2F200014C78002CDED1012099
:101240004870DBE792F8D820002AE0D0897841F690
:101250002842C2F200020029D9D101209070D6E7BD
:101260002DE9F04F40F25C4445F26C06C2F20004F6
:10127000C0F20306678A36F8119036F810A0668926
:1012800046F26765C6F26665C7EB0A0AC6EB09094E
:1012900085FB0A0385FB09184FEAEA724FEAE970F9
:1012A000C0EBA80CC2EBA30104F1040885B007EB66
:1012B000010E06EB0C0B414602224FF480334AF636
:1012C0004440A4F812E0A4F80AB00BF0ADF84FEADD
:1012D00049039620009314F055FA00984FEA4A0B00
:1012E00085FB0B3E85FB000C00994FEAEB72CB1798
:1012F000C2EBAE00C3EBAC0107EB000E06EB010C3A
:10130000022241464FF480334AF64440A4F812E0EA
:10131000A4F80AC00BF088F800980BEB0A0C00EB5D
:10132000090396200093CDF808C014F02BFA029A16
:10133000009985FB023E85FB010B009B0298D917A3
:10134000C217C1EBAB0CC2EBAE0007EB000E06EB15
:101350000C0B414602224FF480334AF64440A4F875
:1013600012E0A4F80AB00BF05FF84FEA8903962068
:10137000019314F007FA01994FEA8A0B85FB0B32AF
:1013800085FB010C01984FEAEB73C117C3EBA20375
:10139000C1EBAC0207EB030E06EB020C4146022246
:1013A0004FF480334AF64440A4F812E0A4F80AC08F
:1013B0000BF03AF801980BEB0A0C00EB09019620B0
:1013C000CDF80CC0019114F0DDF9039A019B85FB67
:1013D000022B85FB033C03980199C217CB17C3EB83
:1013E000AC01C2EBAB0007EB000E06EB010B0222D7
:1013F00041464FF480334AF64440A4F812E0A4F882
:101400000AB00BF011F8962014F0BCF90298DDF840
:1014100000C04FEA400B4FEA4C0385FB031C85FBE1
:101420000B024FEAEB7EDB17C3EBAC00CEEBA20165
:1014300007EB010E06EB000B022241464FF480330E
:101440004AF64440A4F812E0A4F80AB00AF0ECFF0F
:101450004FEAC9019620009114F094F9DDF800C01C
:101460004FEACA0BCAEB0B02C9EB0C0385FB021057
:1014700085FB03C1D217DB17C2EBA002C3EBA103AC
:1014800007EB020E06EB030C022241464FF48033B9
:101490004AF64440A4F812E0A4F80AC00AF0C4FFD7
:1014A000962014F06FF9009985FB0B0E85FB011C4B
:1014B00000984FEAEB72C317C2EBAE01C3EBAC006E
:1014C00007EB010E06EB000C022241464FF480337D
:1014D0004AF64440A4F812E0A4F80AC00AF0A4FFB7
:1014E000962014F04FF9009BDA44994485FB0A2CAE
:1014F00085FB09314FEAEA7A4FEAE979CAEBAC0297
:10150000C9EBA10007EB020E06EB000B41460222DD
:101510004FF480334AF64440A4F812E0A4F80AB02D
:101520000AF082FF962014F02DF90199DDF80CC025
:101530004B004FEA4C0B85FB031285FB0BC5D817FC
:101540004FEAEB7BC0EBA203CBEBA505F6187F19A6
:1015500041464AF6444002224FF480336681678256
:101560000AF062FF962005B0BDE8F04F14F00AB90A
:1015700070B514F04FFD43F25814C2F20004217A02
:1015800046F2676C0131C6F2666C05468CFB013091
:10159000830803EB8302A1EB4200C3B245F2501073
:1015A000C0F203001946237201F06EF935B94AF60C
:1015B0004440217ABDE8704007F0DCBEA8B2F8E7ED
:1015C0002DE9F84F40F25C45C2F200052B78012A64
:1015D00018BF0F4604460E4608BF4F08002B6CD1BB
:1015E00041F6284AC2F2000A012ABAF804B000F013
:1015F000DC8059452CBF8846D846B8F1000F55D03D
:1016000047F20002C2F201021368216808F1FF3CB0
:101610005940116027680CF001007940216017687B
:101620004FF0010C87EA010147F204031160042224
:10163000E045C2F2010339D998B11A6861684FF0E8
:10164000020C5140196060680822414061601868CE
:10165000E04580EA0101196047F20803C2F2010384
:1016600024D9A758196818464F401F6054F80290B3
:10167000111D87EA0907A7501A680CF1020C82EACB
:10168000070740F8047B54F801905F680A1D89EA57
:1016900007075F6054F8019087EA090767505968A7
:1016A00081EA07075F60031DE045DAD80023AAF846
:1016B00004606B705846BDE8F88F4FF4006147F244
:1016C000000011FA02F2C2F2010000212BF08CFCA2
:1016D000002F5ED047F20002C2F2010213682168B7
:1016E000781E59401160D4F800C047F2040381EA23
:1016F0000C012160D2F800804FF0010C88EA010152
:1017000011600422BC4500EA0C00C2F2010340D281
:1017100098B11A6861684FF0020C51401960606816
:101720000822414061601868BC4580EA01011960E7
:1017300047F20803C2F201032BD254F80280196861
:10174000184688EA010EC3F800E054F802A0111D03
:101750008EEA0A0844F802801A680CF1020C82EA48
:10176000080240F8042B54F801A0D3F804E00A1D45
:101770008AEA0E08C3F8048054F801A088EA0A082F
:1017800044F80180596881EA08015960031DBC458D
:10179000D3D341F62840C2F2000001220023868004
:1017A0006A702B703046BDE8F88F59458CBF4FEA00
:1017B00051084FEA5B0820E710B543F25814C2F213
:1017C00000040146E07150B916F06CF845F2601063
:1017D000E179C0F20300BDE8104001F055B80120E6
:1017E000014616F05FF8F1E7012116F0CFBA00BF0D
:1017F00010B5012014F038FE1A204FF480510BF080
:10180000B5FD1B204FF480510BF0A2FD1A204FF4C0
:1018100000610BF0ABFD1B204FF400610BF098FD55
:101820000FF000FD4FF4A8414FF48052012010F05A
:101830004DF9BDE810400FF013BC00BF012010B5FA
:10184000014616F02FF819F0FFFB002016F004FDFA
:101850000DF0ECFF0DF07EFF03200FF0D5F94420D2
:1018600016F04CF90120014616F01CF80020012169
:1018700016F000FA01214AF6444016F087FA642077
:101880001CF006FC002015F057FF4FF4CA7016F04C
:10189000C3FC00200146BDE8104016F003B800BFAD
:1018A000CCE700BF70B541F62844C2F20004A3683B
:1018B000054683420E4638D019F0C6FB002016F0CC
:1018C000CBFC0DF0B3FF0DF045FFB5F5FA4F2DD26F
:1018D0000120014615F0E6FF0FF0D2FB0020014683
:1018E00016F0C8F90FF09EFC122001460FF012FE10
:1018F0004FF440700FF0F6FE00210222012011F09B
:1019000053FD01220021284612F08AF8002010F031
:10191000D3F80020014615F0C5FF32201CF0B8FBBB
:101920004FF4CA7016F078FCA56070BD28460021FF
:1019300016F02CFA0FF0A4FB0221002011F090FE0B
:10194000002128460A4612F06BF8002010F046F8F5
:1019500032201CF09DFB26B19C2016F05DFCA5609A
:10196000E3E78C2016F058FCA560DEE770B541F681
:101970002844C2F20004E368054683420E4623D0A1
:1019800019F062FB002016F067FC0DF04FFF0DF020
:10199000E1FE2846012116F0F9F92846012111F04F
:1019A0008DFF00200121022211F0FEFC32201CF0EC
:1019B0006FFB2EB98C2016F02FFC2661E56070BD00
:1019C0009C2016F029FCF8E720698142D8D1F6E77F
:1019D000012010B50BF07EF80120BDE810400BF09F
:1019E0009DB800BF10B50F2834BF04460F2445F240
:1019F0006C102146C0F2030000F046FF45F26C0077
:101A0000C0F2030000EB4401088B43F25813C2F20A
:101A100000030146DC74BDE8104016F033BC00BF83
:101A200070B543F25814C2F20004A379202B01D9F7
:101A30002023A371207845F26C050838C2B2022A2F
:101A4000C0F203054FD840F2286640F22A61C2F284
:101A5000000105EB4303C2F200061A8F0888B6F8AE
:101A600000C000FB02F00CFB02F640F2215EC8F25F
:101A7000343E8EFB00128EFB06134FEAE67E03EB2C
:101A8000060C1618C017C0EB6623CEEB6C2189B28A
:101A90009AB2002010F062F894F806E0022005EBFC
:101AA0004E06B6F87C1043F258160A4610F056F867
:101AB00094F806C0032005EB4C02B2F87C10C2F289
:101AC00000060A4610F04AF86379102B01D910235A
:101AD000737105EB4305B5F8C01001200A46BDE857
:101AE000704010F03BB805EB4300018F00200A4620
:101AF00010F034F8D0E700BFA0F58051C81E10B533
:101B0000252840D8DFE810F04D003F003F003F009F
:101B10003F003F00560071003F003F003F003F0084
:101B20003F003F003F003F003F008B003F003F0071
:101B3000E3009800BC002600F7003F003F001201C0
:101B4000240137013F003F003F003F004000670194
:101B500049015B0143F25814C2F2000494F834E1E5
:101B600045F2AC10DEF1010C38BF4FF0000C6146BD
:101B7000C0F2030084F834C100F086FE94F83411FA
:101B8000002940F03A8110BD43F25814C2F200041B
:101B9000637A092B40F24B8145F21020C0F203001A
:101BA00024E1FFF7E5FC43F25813C2F200030120E1
:101BB000D87210BD43F25814C2F20004A3791F2B4F
:101BC00001D80133A371E27943F25813C2F2000342
:101BD000002A40F0348145F28010A179C0F2030060
:101BE00000F052FEBDE810401AE743F25814C2F26A
:101BF0000004A3790BB1581EA071E27943F2581387
:101C0000C2F20003002A40F0208145F28C10A17935
:101C1000C0F2030000F038FEBDE8104000E743F2D8
:101C20005812C2F2000292F807C0DCF1010038BF7E
:101C30000020BDE81040BFE543F25814C2F2000492
:101C4000237D45F29810D3F1010E38BF4FF0000EFE
:101C50007146C0F2030084F814E000F015FE217D07
:101C6000002990D041F6284240F25C43C2F20003C2
:101C70000121C2F20002002050705970197010BD8D
:101C800043F25814C2F2000494F8D8E045F2A410CC
:101C9000DEF1010C38BF4FF0000C6146C0F20300CA
:101CA00084F8D8C000F0F0FD94F8D81000293FF473
:101CB0006AAF41F6284240F25C43C2F200030121C0
:101CC000C2F20002002090705970197010BD43F2EA
:101CD0005814C2F20004617C002900F09C8045F297
:101CE000B410C0F2030000F0CFFD0C2005F062FD3F
:101CF0000023637416E043F25813C2F2000393F812
:101D000012E045F2E410DEF1010C38BF4FF0000C98
:101D10006146C0F2030083F812C000F0B5FD372021
:101D200005F048FDBDE8104001F022B943F258111A
:101D3000C2F2000191F80EC0BCF1050F3FF623AFCF
:101D4000DFE81CF0C300D600CB00B000A500B8004F
:101D500043F25813C2F2000359790F2902D8481CE4
:101D6000C1B2597145F2F010C0F2030000F08CFDD1
:101D7000BDE8104054E643F25813C2F2000359790B
:101D800011B10139C9B2597145F20020C0F2030006
:101D900000F07AFDBDE8104042E643F25814C2F26A
:101DA0000004A37A092B68D945F23020C0F2030061
:101DB000A17A0022E272BDE8104000F065BD43F256
:101DC0005814C2F20004A37A002B4ED145F24020F1
:101DD000C0F20300ECE743F25814C2F20004637A45
:101DE000002B38D145F22020C0F20300617A002296
:101DF000E272BDE8104000F047BD41F6284240F2D3
:101E00005C43C2F200030121C2F200020020D07044
:101E10005970197010BD45F2CC10C0F2030000F0EB
:101E200033FD01220B20627405F0C4FC7AE7013314
:101E3000DAB21046A17A6272FFF712FAACE600211C
:101E40000846D971FFF7B8FCC5E600210846D971EC
:101E5000FFF7B2FCD9E6581E5FFA80FC6046A17A13
:101E600084F809C0FFF7FCF9BCE7581EC3B2194655
:101E7000607AA372FFF7F4F9A8E7591C5FFA81FEB4
:101E80007146607A84F80AE0FFF7EAF98CE745F2D8
:101E90008020C0F2030000F0F7FC2320BDE81040D2
:101EA00005F088BC45F27420C0F20300BDE8104084
:101EB00000F0EABC45F28820C0F2030000F0E4FC28
:101EC0002620BDE8104005F075BC45F25020C0F258
:101ED0000300BDE8104000F0D7BC45F26820C0F216
:101EE000030000F0D1FC1D20BDE8104005F062BCED
:101EF00045F25C20C0F2030000F0C6FC4920BDE8BA
:101F0000104005F057BC00BF08B545F29023C0F261
:101F100003031A78824214D0197B81421CD093F8B3
:101F200018C084451AD093F82420824218D093F820
:101F30003010814216D093F83CC0844514D0002064
:101F400008BD002202EB420003EB80039B680BB14B
:101F5000984708BD012008BD0122F3E70222F1E7FE
:101F60000322EFE70422EDE70522EBE72DE9F84530
:101F700045F29026C0F203063378834208BF4FF043
:101F8000000800F09F80317B814208BF4FF00108BC
:101F900000F09880327E824208BF4FF0020800F0C5
:101FA000918096F82440844208BF4FF0030800F067
:101FB000898096F83050854208BF4FF0040800F041
:101FC000818096F83C70874218BF4FF0060877D0A2
:101FD0004AF6AB27CAF6AA27A7FB0824A10801EBFB
:101FE000410AA8EB4A0465002B1906EB83008368BD
:101FF00045F2902AC0F2030A002B5CD098470028D3
:1020000059D108F1010EA7FB0E239D0805EB450CE5
:10201000AEEB4C04650028190AEB80029368002B94
:1020200049D09847002846D108F10200A7FB0023B9
:102030009D0805EB4504A0EB440465002A190AEB52
:1020400082018B68002B36D09847A0BB08F1030EA5
:10205000A7FB0E20840804EB440CAEEB4C04650097
:102060002A190AEB82018B682BB3984718BB08F139
:10207000040CA7FB0C24A20802EB4205ACEB4504C0
:10208000650029190AEB81039B68A3B1984790B9B1
:1020900008F10508A7FB0825A90801EB410EA8EBEC
:1020A0004E0465002B1906EB830083681BB198472B
:1020B00008B9BDE8F8852C1916F82400BDE8F885A4
:1020C0004FF0050808F1010882E700BF70B545F23E
:1020D0009025C0F203052C780646844205D0AB68F3
:1020E000002B3FD0984700283CD12C7B45F2902311
:1020F000B442C0F2030305D05B69002B32D098478D
:1021000000282FD12C7E45F29023B442C0F2030365
:1021100003D01B6A33B3984720BB95F8244045F29F
:102120009023B442C0F2030303D0DB6AD3B19847D3
:10213000C0B995F8304045F29023B442C0F2030391
:1021400003D09B6B73B1984760B995F83C4045F25A
:102150009023B442C0F2030303D05B6C13B19847E1
:1021600000B90024204670BD08B543F25813C2F2EE
:1021700000039A78012A0FD0022A05D041F201000B
:1021800000F04AFE012008BD0120D87041F2010094
:1021900000F042FE012008BD0222DA7041F2010087
:1021A00000F03AFE012008BD41F20713984270B5D5
:1021B000044600F0538114D941F20B12904200F012
:1021C0004D811FD941F2014C604500F0D08041F2B1
:1021D0000243984200F0BD8041F20C1084420FD1BE
:1021E00085E041F20310844200F0388170D841F25A
:1021F0000110844200F0328141F202118C4271D010
:10220000002070BD41F20915A84200F0108177D876
:1022100004F02AFE002800F0978041F2031000F03D
:10222000D9FD41F20612944200F01E8141F2021ED5
:10223000744500F02D8145F29023C0F20303B3F8FA
:1022400002C0A44500F032819988A14200F02E819D
:10225000D889A04200F038811A8AA24200F0348165
:10226000B3F81AE0A64500F03181B3F81CC0A445CC
:1022700000F02C81D98CA14200F02A81188DA04257
:1022800000F026815A8EA24200F02481B3F834E097
:10229000A64500F01F81B3F83EC045F29022A44548
:1022A000C0F2030200F01881B2F84010A14200F021
:1022B0001381002343F25814C2F20004207898429C
:1022C0009ED10020FFF702FFA070BDE870404BE7F1
:1022D00041F20515AC425DD033D904F0F5FD00287C
:1022E00000F0EA8004F0EEFD002800F0D58004F054
:1022F000E7FD00288CD141F20B1000F06BFD87E761
:1023000004F078FD002800F0DB8043F25814C2F29C
:10231000000494F800E0BEF1040F00F0A9805820FA
:1023200005F048FA2378062B00F0E580052B00F035
:10233000A580042B00F09C800020FEF719FE0020F1
:1023400070BD00F047FD76E741F2071000F042FD56
:1023500063E743F25813C2F2000345F2D82099789C
:10236000C0F2030000F090FABDE87040FCE643F2D2
:102370005813C2F200039A780C2A3FF441AF93F845
:1023800000C0BCF10C0F3FF43BAF0C219970BDE8CD
:102390007040E9E643F25812C2F200021378A3F14A
:1023A000090C5FFA8CF101297ED9042B79D045F212
:1023B0009023C0F203035888A04200F094809988CB
:1023C000A14200F09080B3F80EC0A44500F09180C7
:1023D000188AA04200F08D80598BA14200F09580B0
:1023E000B3F81CC0A44500F09080D88CA04200F047
:1023F0008E80198DA14200F08A80B3F832C0A445C6
:1024000000F08780988EA04200F08380B3F83EC031
:1024100045F29021A445C0F203017CD0B1F84010F0
:10242000A14278D000239370BDE870409CE643F24F
:102430005813C2F200031878062861D005283FF42B
:102440007CAF04281FD11C7C002C48D0012C7FF4C9
:10245000D7AE0520FEF78CFD002070BD43F2581268
:10246000C2F200021378A0E7022008F0ADFDE2E618
:10247000247C002C32D0012C7FF4C2AE0320FEF766
:1024800077FD002070BD0120FEF772FD002070BDB9
:10249000012008F099FDCEE641F2011000F09AFC0F
:1024A00025E7D37B022B82D1012070BD002202EBF5
:1024B000420413F82430FDE6284600F08BFC11E7B7
:1024C000284600F087FC20E70122F0E70222EEE731
:1024D0000322ECE70422EAE70522E8E70220FEF700
:1024E00047FD204670BD002101EB410013F820306C
:1024F00099E70121F8E70220FEF73AFD002070BDC0
:102500000420FEF735FD002070BD0221ECE7032119
:10251000EAE70421E8E70521E6E700BF40F274435B
:10252000C2F2000318707047704700BFFEE700BF9B
:1025300000B585B00191034630B1026811700068A2
:10254000421C1A6005B000BDC9B20A2904D001A816
:10255000012119F04BF8F5E704A840F60D2320F807
:10256000043D022119F042F8ECE700BF2DE9F845DF
:10257000B2F1000804460D460EDD0A78002A5CD050
:1025800000220132A95C0029FBD19045D8BF8846C2
:1025900053DC13F0020F4ED1202713F0010F1FD18F
:1025A000B8F1000F1CDD08F1FF362046394606F071
:1025B000010AFFF7BDFF002E0EDDBAF1000F04D1B6
:1025C00020463946013EFFF7B3FF013E204639461B
:1025D000FFF7AEFF002EF3DC46464FF0000800E0A8
:1025E0000026297839B1AD1B01362046FFF7A0FF40
:1025F000A95D0029F8D1B8F1000F19DD08F1FF3508
:102600002046394605F0010AFFF792FF002D0EDD46
:10261000BAF1000F04D120463946013DFFF788FF8B
:10262000013D20463946FFF783FF002DF3DC464489
:102630003046BDE8F8853027AFE713F0020FC2EB54
:102640000808A9D0F7E700BF2DE9F0410C4684B097
:1026500080460A9F0B9D002C41D00A2A14BF0020FF
:102660000120002B0CBF002300F00103002B2CD114
:10267000002400268DF80F6000293CD00C980DF145
:102680000F063A38B1FBF2F302FB13110929C8BF58
:102690000918303106F8011D1946002BF2D14CB94A
:1026A000404631463A462B46FFF760FF001904B01A
:1026B000BDE8F08177B115F0020F0BD040462D2117
:1026C000FFF736FF013F0124EAE70029D0DA49424B
:1026D0000124CEE72D2206F8012D0024E0E74FF07B
:1026E000300C3A462B4601A98DF804C08DF8054000
:1026F000FFF73CFFDBE70DF10F06002CD0D0D9E748
:102700002DE9F04F0C46097887B0804692460029A3
:1027100000F0948045F2FC290027C0F203094FF035
:10272000610B25293DD114F8011F00292ED0252940
:1027300037D02D2946D0002603E014F8011F46F0BB
:1027400002063029F9D0A1F13000C3B2092B4AD8D2
:10275000002505EB850501EB450514F8011F303D0B
:10276000A1F1300C5FFA8CF2092AF2D973291DD03D
:1027700064292BD0782938D058293CD0752947D0E6
:1027800063294BD014F8011F0029CAD1B8F1000FFA
:1027900003D0D8F8003000211970384607B0BDE8E2
:1027A000F08F4046FFF7C4FE0137EBE75AF8041BF1
:1027B0002A46002908BF494633464046FFF7D6FE61
:1027C0003F18DFE714F8011F0126BAE75AF8041B87
:1027D00040460A22012300950196CDF808B0FFF784
:1027E00033FF3F18CEE70025C0E75AF8041B4046E8
:1027F00010220023EFE75AF8041B404600951022F0
:102800000023412501960295FFF71EFF3F18B9E707
:102810005AF8041B40460A220023DCE75AF804CB8E
:102820004FF0000E2A463346404605A98DF814C0E5
:102830008DF815E0FFF79AFE3F18A3E70F46A5E7CE
:102840000CB400B583B002AB04AA52F8041B43F8E1
:10285000040D1846FFF754FF03B05DF804EB02B017
:10286000704700BF0EB400B582B002AB03AA52F8A5
:10287000041B43F8040D1846FFF742FF02B05DF851
:1028800004EB03B0704700BF0FB408B502AA52F8BA
:10289000041B0020FFF734FFBDE8084004B0704778
:1028A00010B54FF4C06086B01CF0FEF801AC2146B4
:1028B00005201FF001FAFAE770B506460D46EFF362
:1028C000058414B14FF0FF3070BD204621461CF046
:1028D00095FB40F202639842F4D1304629462246E5
:1028E000BDE8704018F0C0BF18F080BE38B505468E
:1028F00045F2B0100C46C0F203002946FFF7C4FFB2
:10290000012D73DD60680378313B492B2AD8DFE85D
:1029100003F0253E43484D522929292929292929EF
:102920002929292929292929292929292929292917
:102930002929292929292929292929292929292907
:1029400029292929662929292929292929292929BA
:102950002929292B5E2929292929295741F21C00D7
:1029600000F05AFA002038BDBFF34F8F4EF60052E8
:10297000CEF20002D36840F2040503F4E061C0F235
:10298000FA5541EA0504D460BFF34F8FFEE741F2E8
:10299000100000F041FAE5E741F20F0000F03CFAC8
:1029A000E0E741F20A0000F037FADBE741F2090004
:1029B00000F032FAD6E741F20B0000F02DFAD1E731
:1029C000D4F890016FF0200C80F800C4CAE7002111
:1029D00020200A460DF004FD0DF038FFC2E702206A
:1029E00001210DF07FFD0DF093F8BBE745F20430B7
:1029F000C0F20300FFF748FFB4E700BF10B541F68F
:102A00005042C2F2000284B0146804AB4FF0000CD4
:102A100023F802CD0246222120460224009406F02B
:102A20005BFF9DF80F309DF80E1003EB012080B284
:102A300004B010BD10B504460B20FFF7DFFF10F403
:102A4000807020D0B4F5876F14BF00230123B4F544
:102A50007F7F08BF43F0010383B9B4F5707F14BFD3
:102A60000020012040F27532944208BF40F001007E
:102A700020B9B4F57A7F01D0012010BD0A20FFF7FC
:102A8000BDFFC0F3802010BD10B541F65042C2F228
:102A90000002136884B08C464FEA112E02460224CD
:102AA0001846222103AB8DF80CE08DF80DC0009480
:102AB00006F02CFF04B010BD10B504460520FFF74A
:102AC0009DFF4FF6F072C0F2000200EA020304F02C
:102AD0000F0143EA01010520BDE81040D4E700BF23
:102AE000A0F558718A1F90014FF6D07140F0100385
:102AF000C0F2000103EA01010320C5E710B5044656
:102B000045F23C60C0F20300FFF7BEFE2046BDE880
:102B10001040E5E710B504460220FFF76FFF34B917
:102B200040F4004291B20220BDE81040ACE74104FD
:102B3000490CF8E710B504460220FFF75FFF34B9EF
:102B400040F4804291B20220BDE810409CE74BF671
:102B5000FF71C0F2000100EA0101F4E7012008B5AD
:102B6000FFF7E8FF012008BD38B5022043F25415F5
:102B70004FF0FF320146C2F200052A70FFF784FFD2
:102B80003C201BF085FA0E20FFF738FF044645F283
:102B90005060C0F203002146FFF776FE45F60103C0
:102BA0009C421CD045F604018C4225D045F6080C09
:102BB000644507D045F26C60C0F20300FFF764FE85
:102BC000002038BD45F26860C0F20300FFF75CFEEC
:102BD000032201202A70FFF7ADFF012038BD45F226
:102BE0006060C0F20300FFF74FFE00202870012054
:102BF000FFF7A0FF012038BD45F26460C0F203007A
:102C0000FFF742FE022301202B70FFF793FF012004
:102C100038BD00BF10B541F65044C2F2000423682D
:102C200013B1BDE810409FE70220032102460423B0
:102C300006F0BEFB2060F4E7F8B54CF2010102207B
:102C400043F25417FFF720FFC2F200074FF416704B
:102C50001BF01EFA3878022864D090B945F234543B
:102C6000C0F2030404F180066188251D2078FFF777
:102C70000BFF207969882C1DFFF706FFB442F3D1C2
:102C8000387803284CD10021FFF7FEFE4FF4806115
:102C90000420FFF7F9FE4CF2AD610520FFF7F4FECA
:102CA0004FF4C0410620FFF7EFFE44F21621072043
:102CB000FFF7EAFE00210920FFF7E6FE42F61121A8
:102CC0001220FFF7E1FE4BF242011320FFF7DCFE7A
:102CD00042F611211420FFF7D7FE4BF631011520E3
:102CE000FFF7D2FE4FF440411620FFF7CDFE42F62B
:102CF00091211720FFF7C8FE4FF414411820FFF769
:102D0000C3FE4FF2CF711B20FFF7BEFE42F6DC215F
:102D10001C20FFF7B9FE1D2048F26F01FFF7B4FE3B
:102D20000120F8BD00210320FFF7AEFE4FF48061C3
:102D30000420FFF7A9FE48F2AF610520FFF7A4FECB
:102D40004FF400410620FFF79FFE45F61A71072059
:102D5000FFF79AFE4FF470411220FFF795FE47F6F9
:102D60000B711320FFF790FE71211420FFF78CFEEA
:102D700044F2C0211520FFF787FE4FF486511A2038
:102D8000FFF782FE46F215011C20FFF77DFE4FF48F
:102D90008B412120FFF778FE40F201612420FFF7EC
:102DA00073FE40F604512620FFF76EFE2C2043F6FA
:102DB0003B41FFF769FE38784FE700BF40F27543AB
:102DC000C2F200031870704740F27543C2F200036C
:102DD0001878704701460A201EF034BB38B500F45D
:102DE0007F4500242846FFF7F5FF681C85B20134B3
:102DF000284601340135FFF7EDFFB4F5807FADB211
:102E0000F0D138BD014608B502201EF01BFB00388A
:102E100018BF012008BD00BF30B541F20133984210
:102E200083B0054634D004F05DFC002849D141F25E
:102E300006118D4214BF0020012041F2021295427A
:102E400008BF40F00100002814D0EFF3058444B916
:102E5000214628462246022300941CF0E9F903B0DB
:102E600030BD002128460A46022303B0BDE83040A9
:102E70001DF01CBA41F20C1E754514BF002401243C
:102E800041F2081C654508BF44F00104002CDCD168
:102E900041F20410854214BF0021012141F20A13BE
:102EA0009D4208BF41F001010029CED1EFF3058416
:102EB00054B128460A46012303B0BDE830401DF056
:102EC000F5B904F069FCB2E7214628462246012301
:102ED00000941CF0ADF9C2E710B50246EFF305808F
:102EE00080B14FF6DA7440F6DC22C2F200021168BB
:102EF00041F62440C2F200000A6803689A4206D0F4
:102F0000204610BD01461CF079F884B2EBE720465C
:102F1000FFF74AF9002818BF0024204610BD00BF63
:102F2000014608B5012041F071FDD0F1010038BF24
:102F3000002008BD10B545F27460C0F203000368BC
:102F400082B001AC4FEA134C21460220032284F8E0
:102F500002C0ADF8043041F059FDD0F1010038BF96
:102F6000002002B010BD00BF0320FDF7C3BD00BFAD
:102F700010B50020FDF762FA43F2581104465A20BA
:102F8000C2F2000120700A78002062708B79E37031
:102F900091F808C084F804C04A7C62718B7CA371EC
:102FA000FDF7A8FD0120FDF7A5FD45F27860C0F210
:102FB0000300FFF769FC44F6BC702178C0F20300FF
:102FC000FFF762FC44F6D0706178C0F20300FFF7AF
:102FD0005BFC44F6E070A178C0F20300FFF754FCFC
:102FE00044F6F070C0F20300FFF74EFC44F6987010
:102FF000C0F20300BDE81040FFF746BC45F2946004
:1030000010B5C0F20300FFF73FFC47F6F043C2F2F1
:10301000000345F2B4601968C0F20300BDE8104037
:10302000FFF732BC38B543F25814C2F20004002155
:103030004FF40A72204629F0D7FF022121730A219A
:10304000012305221A25002061710F216272E174AB
:1030500063746373A272E372A571FDF7EFF94178AF
:1030600021708278E270C378A37190F804C0202B9D
:1030700088BFA57184F808C0C17943F25813E17480
:103080004279C2F20003012A627401D901225A7402
:1030900090F806E043F25813BEF1010F84F812E0F5
:1030A000C2F2000301D90020987438BD41F65443A0
:1030B000C2F20003186808B190F85A00704700BFC8
:1030C00038B541F65444C2F20004236805466BB19A
:1030D00093F85A30834209D045F2D860C0F2030019
:1030E0002946FFF7D1FB206880F85A5038BD00BF51
:1030F00045F2F46010B5C0F20300FFF7C5FB43F2E0
:103100005810C2F200000378032B09D041F6544155
:10311000C2F200010B681BB193F85A20032A00D0B9
:1031200010BD93F85BC0BCF1050FF9D093F8A9105E
:1031300061B1012918D045F27C700022C0F2030071
:1031400083F8A920BDE81040FFF79EBB196845F23F
:1031500014700122C0F2030083F8A920C3F8A01064
:10316000BDE81040FFF790BB1868D3F8A010884264
:103170000AD845F234700021C0F2030083F8A91088
:10318000BDE81040FFF780BB411A45F25C704FF07C
:10319000020EC0F2030083F8A9E083F8A820C3F868
:1031A000A410BDE81040FFF76FBB00BF45F2907060
:1031B00010B5C0F20300FFF767FB41F65443C2F2BB
:1031C00000031B6873B193F85A0002280AD943F22E
:1031D0005812C2F200021178032904D00320BDE87E
:1031E00010406DE710BD0620BDE8104068E700BF45
:1031F00045F2B47010B5C0F20300FFF745FB41F68D
:103200005443C2F200031B6873B193F85A000228BA
:103210000AD943F25812C2F200021178032904D0ED
:103220000320BDE810404BE710BD0520BDE810406D
:1032300046E700BF45F2D87008B5C0F20300FFF7BB
:1032400023FB43F25813C2F2000393F800C0BCF111
:10325000100F18BF83F801C0002104200222197446
:103260009870DA7308BD00BF45F2F87010B5C0F26F
:103270000300FFF709FB43F25810C2F20000037885
:10328000032B03D00420BDE8104019E710BD00BF98
:1032900045F61C0010B5C0F20300FFF7F5FA43F243
:1032A0005810C2F200000378032B03D00320BDE8BE
:1032B000104005E710BD00BF45F6400008B5C0F25C
:1032C0000300FFF7E1FAFFF7E3FF41F65440C2F2D3
:1032D000000003680022A3F86C20A3F86620A3F87E
:1032E0006820A3F86A2008BD45F6600008B5C0F262
:1032F0000300FFF7C9FA43F25813C2F200030F228A
:103300009A7008BD45F67C00C0F20300FFF7BCBA16
:1033100070B541F65444C2F20004256882B095F8B5
:10332000FC30002B5AD045F69C00B5F8D430C0F2E2
:103330000300B5F85610B5F85420FFF7A5FA226837
:1033400044F6D35C114651F8206BC1F2620CACFB21
:10335000060348F689004FEA931CC8F68800A0FBD4
:103360000C354BF2732EC4F2E75EAEFB0603680920
:10337000C0EB001545F6BC00ACEB85052832C0F269
:1033800003009B0B0095FFF77FFA226892F85B0021
:1033900005280AD8DFE800F030373E454C0345F6F3
:1033A0000410C0F20300FFF76FFA43F25813C2F2A1
:1033B0000003D97A39B945F61010C0F203009A7AA1
:1033C000597AFFF761FA43F62020C0F20400FFF7B4
:1033D0005BFA20680268426002B070BDA96C45F6D5
:1033E000AC00B1F83836B5F85420B5F85610C0F234
:1033F0000300FFF749FAA2E745F6DC00C0F203003C
:10340000FFF742FAD1E745F6E400C0F20300FFF708
:103410003BFACAE745F6D400C0F20300FFF734FADE
:10342000C3E745F6FC00C0F20300FFF72DFABCE746
:1034300045F6F000C0F20300FFF726FAB5E700BF3B
:1034400045F6201010B5C0F20300FFF71DFA41F653
:103450005443C2F200031B681BB193F85A000328BF
:1034600005D03A2004F0A6F9BDE8104010E7FFF7B8
:10347000FBFE1B20BDE8104004F09CB945F640104F
:1034800038B5C0F20300FFF7FFF943F25813C2F258
:1034900000031B78032B22D0102B20D041F654457B
:1034A000C2F200052C6894F85B00012814BF0022CA
:1034B0000122042814BF134642F001038BB194F893
:1034C0004C10012384F8FC30002938D1B4F8562080
:1034D00004F1AC00002125F033FD044638B301208F
:1034E00038BD94F84C004FF0010C84F8FC30A4F87F
:1034F00056C0B8B94FF00102A4F8542004F1AC0052
:103500000021012225F01CFD20B12B68B3F8D81052
:103510000029E4D145F66010C0F20300FFF7B4F9CA
:10352000002038BDB4F80CE0A4F854E0E6E745F616
:103530006010C0F20300FFF7A7F9204638BDA06C69
:10354000218A25F065FAA4F856002C68E089A4F8D1
:103550005400BBE770B541F65445C2F200052A6835
:1035600045F6741092F85B40C0F203002146FFF765
:103570008BF92A684AF6AB2C92F85B00CAF6AA2CA3
:10358000411CC8B2ACFB00139B0803EB430CA0EB3F
:103590004C01012C14BF00230123C9B2042C08BF25
:1035A00043F0010382F85B1043B14B1E18BF0123A7
:1035B00004290CBF002303F00103ABB9D4F10100CF
:1035C00038BF0020022C08BF40F00100C8B10A1E1D
:1035D00018BF012202290CBF002202F0010242B1F1
:1035E000032906D0052904D0FFF748FF2B6893F87C
:1035F0005B1045F69810C0F20300BDE87040FFF77D
:1036000043B9032C14BF4FF0000E4FF0010E052CF0
:1036100014BF74464EF00104002CEAD00A1E18BFF5
:10362000012202290CBF002202F00102002AD7D198
:10363000DFE700BF30B545F6B41083B0C0F2030039
:10364000FFF722F943F25813C2F200031D78102D40
:103650000FD003F037FC0024A04214BF0121022147
:10366000224628462346009401F05CFC012003B06A
:1036700030BD0020FBE700BF2DE9F04543F25810B4
:10368000C2F20000037883B0032B6BD041F65444A0
:10369000C2F2000423689A68002A68D043F2004509
:1036A000C2F2000580221D652846002129F09CFCFD
:1036B00020688268966A002E3DD0032E08BF4FF026
:1036C000020805D0012E0CBF4FF0FF084FF0000894
:1036D00092F82C60002E4DD043F200402C32C2F202
:1036E000000080214023CDF8008005F0ABFA43F2C2
:1036F0000040C2F2000029F00DFF226841F6544656
:103700009368C2F2000693F86C10002954D193F824
:10371000AC306BB123682F2242559A68411C68185F
:10372000AC32C1F180014023CDF8008005F08AFA67
:1037300003B0BDE8F08590F84C100029F8D043F2B2
:103740008035C2F200050C302946802223F050F863
:103750000028EDD033465C5D59190CB94C78A4B102
:103760000233F8E741F65441C2F200010B68002031
:103770001865DDE72030AC4607C8ACE80300130C41
:1037800061460A80AB720B20B7E743F2004043F278
:1037900080328021C2F20002C2F20000009405F0E3
:1037A00051FA43F28030C2F200002146802203B079
:1037B000BDE8F04529F018BC2F27475500F1010A54
:1037C000926805EB0A076C324023CAF18001384643
:1037D000CDF8008005F036FA384629F09BFE3268B5
:1037E0005044936893E700BF10B545F6D81041F6F2
:1037F0005444C0F20300C2F20004FFF745F8236806
:1038000093F84C203AB945F62420C0F20300BDE8F5
:103810001040FFF739B845F6FC109989C0F2030053
:10382000FFF732F820680C3024F034F823680020C9
:1038300083F84C0010BD00BF70B545F63C2041F642
:103840005445C0F20300C2F20005FFF71DF82868D6
:103850000024012143F2581280F84E1080F85C4099
:10386000046580F8A940C2F200021378032B2FD020
:1038700017F0EEF82B68A3F87240A3F86640A3F89F
:103880006840A3F86A40A3F86C40A3F86E40A3F820
:1038900070402B6893F865200AB183F86540FFF704
:1038A000A3FF296800200860FFF70AFC41F210001E
:1038B000FFF790FA41F23600FFF78CFA41F20F0061
:1038C000FFF788FA41F23700BDE87040FFF782BA8F
:1038D00070BD00BF70B541F65444C2F200042168C7
:1038E000064645F65820C0F20300B1F8D850FEF75E
:1038F000CBFF2068B0F8E430AB422DD290F8FA202C
:1039000062B3E6300AF074FB2068E6300AF070FC1F
:1039100020684EF6D773B0F8E4C0C0F200030CEB99
:103920008C025100CA18B3181FFA83FC4EF6D772E6
:103930006545C0F20002A0F8E4C038BFA0F8E4502A
:10394000B11888B203F036FF43F25813C2F20003F5
:10395000587C08B1FFF770FF012070BD44F6750276
:10396000E630C0F200024FF4FA610AF081FBCBE7C7
:103970002DE9F041002084B0FCF760FD06460120EF
:10398000FCF75CFD054645F67420C0F20300FEF727
:103990007BFF41F6544445F69820C0F20300C2F282
:1039A0000004FEF771FF226892F84C3013B192F8D0
:1039B000000100B392F85B1095F801C043F2581370
:1039C00061F3060C85F801C092F86400C2F20003AE
:1039D00060F3C71C85F801C093F808E0002086F862
:1039E00004E09979F170FDF785F80120FDF782F880
:1039F00004B0BDE8F08107F0CFF890F90080B8F18D
:103A0000FF3F41D02368EC4603F1200207CAACE82F
:103A1000030060464FEA124E028003F12C0104229B
:103A20000DF10B008DF80AE029F0BAF9226844F68E
:103A3000D3531168C1F26203A3FB010CCCF38F10C6
:103A400005EBC808010A88F8071088F80600936992
:103A5000D2696846D3181A0EC3F30741C3F3072C83
:103A600088F8041088F805200F2188F803C088F82A
:103A70000230FCF7EFFB88F8080022686F4692F8E6
:103A8000FC1088F8091095E705F10A08414608225C
:103A9000A81C29F085F9404605F11201082229F0F9
:103AA0007FF927680220B7F85620B7F8541007F0BE
:103AB00079F84FF00208A5E710B543F25813C2F2A7
:103AC00000031B78022B0BD0032B03D0012B03D058
:103AD000102B09D0002010BDBDE8104003F0F4B950
:103AE000BDE8104003F0EEB903F0ECF908B1012095
:103AF00010BD03F0E9F9003818BF012010BD00BF68
:103B000010B5044645F6B820C0F20300FEF7BCFE2F
:103B1000012C0ED003F0D8F928B143F25811C2F2AB
:103B200000010120887041F20100BDE81040FFF75C
:103B300073B903F0C7F90028F5D043F25813C2F265
:103B4000000302229A70EEE7F0B541F65444C2F247
:103B50000004256883B01DB195F85A30032B01D0BD
:103B600003B0F0BD44F6D3536A68C1F2620329681A
:103B7000A3FB0202A3FB010C9209B2EB9C1F02D033
:103B8000FFF7C6FB256895F8A900022819D095F81B
:103B90005BC0BCF1050F0AD095F86500002825D15F
:103BA000286D0028DCD103B0BDE8F04064E52B6847
:103BB000B3F5FA5FF0D341F23600FFF72DF925682F
:103BC000EAE7D5F8A410D5F8A0002A680B189A42A5
:103BD000DDD395F8A8600EBB45F6D420C0F20300F3
:103BE000FEF752FE256885F8A960D0E7B5F86610A3
:103BF000B5F86C60B5F86800B5F86AC041EA0042F3
:103C00004CEA06432E68D1188E4213D2B5F97210D1
:103C10000029BCBF0020A5F87200A1E7721ED1B236
:103C200045F6E82085F8A810C0F20300FEF72CFE48
:103C30002568ACE7304616F0FFFE80B210F4004F66
:103C4000A5F8720018BF2568E0D12368B3F9725057
:103C5000802D00F39D800025B3F86E20B3F870002E
:103C6000002142EA0040802229F0BEF92068314656
:103C70000022663016F03CFC15F052FD2668B6F9BD
:103C80007230002B55DD011E18BF012105280CBF25
:103C9000002101F0010100294BD0012849D0022860
:103CA00008BF074603D0042814BF0027012743F2AA
:103CB000803000218022C2F2000029F095F92668A8
:103CC00043F28030B6F97210B6F86E30B6F8702054
:103CD000C2F2000043EA02420B46009704F0B2FF32
:103CE0002368A6F87200B3F86EC0B3F8706043F2B0
:103CF00080314CEA0640B3F97220C2F2000129F08B
:103D00004FF843F2803000218022C2F2000029F0F7
:103D10006BF922680021B2F86E00B2F870C0B2F9F7
:103D2000726040EA0C439819C6F1800229F05CF9F0
:103D30002668E5B1B6F87270B6F86EC0B6F8705085
:103D400039B200234CEA0540994205D9C25C802A69
:103D50001CD902339942F9D87A1E93B24CEA054C29
:103D600019B20020A6F872300CF801002668B6F8E7
:103D700070E0B6F86EC045F600304CEA0E41C0F275
:103D8000030003B0BDE8F040FEF77EBD0133DBE782
:103D90004FF0800EA3F872E001255DE7F0B541F623
:103DA0005444C2F2000491B0236803AE1A8A30462C
:103DB000002124F033FF08B911B0F0BD43F2803583
:103DC000C2F2000500218022284629F00DF9206862
:103DD00029460C30802222F00BFD00286FD02A46A5
:103DE0007F210EE092F87F70821E7FB990F87E30BE
:103DF00002395BB990F87F0040B90239B1F1FF3F59
:103E00006DD092F87E30901E002BEBD000290A4630
:103E10000EDDC81E01F1FF3C28181CF0020F35D042
:103E20002E2B48D08A1E0238002AC8BF83782DDC8A
:103E3000531E792B33D90732002543F280313046A7
:103E4000C2F200012B46009516F0D4FF0028B3D033
:103E500043F200432268C2F20003190C012082F8E9
:103E60006500A2F87010A2F86E30A5E7C1780029AD
:103E7000DED0023A002A1146DADD93F802E0BEF104
:103E80002E0F08D0184610F802398A1E2E2BA0F1EA
:103E90000203EED1EAE7D8780028F3D1C8E7551934
:103EA0006C210020697072236321A871EB70697125
:103EB000A8702871BFE7C378002BB3D1B8E745F6E7
:103EC0000830C0F2030022680368203292E8030041
:103ED0001A0CAA7285E803002B810B22ACE7802222
:103EE000AAE700BF45F60C3038B5C0F20300FEF774
:103EF000CBFC20F031FE28B3FFF7DEFD10B341F616
:103F00005444C2F20004256895F8FC1011BB05F179
:103F10000C00B5F8542022F0D1FC85F84C00236841
:103F200045F64030C0F20300B3F85420B3F8AC10AB
:103F3000FEF7AAFC206890F84C40CCB1FFF72EFFAA
:103F4000012038BD45F63030C0F20300FEF79CFC7E
:103F5000002038BDB5F8D210B5F8543005F10C008A
:103F6000CA1892B2002122F0A9FC85F84C00D6E7CD
:103F700045F67830C0F20300FEF786FC204638BDD7
:103F800038B545F6843041F65444C0F20300C2F21D
:103F90000004FEF779FC2368002583F84E5083F86F
:103FA000A950FFF721FCFFF79DFF002832D02168C0
:103FB00045F6A430A1F8E050C0F20300FEF764FC1F
:103FC0002846FFF77DF8FFF70FFC236893F80021E0
:103FD000002A4CD193F84D00002837D141F2360029
:103FE000FEF71AFF236841F6544493F86520C2F2A5
:103FF0000004002A37D023B193F85AC0BCF1040F53
:1040000002D00320FFF75CF8FFF782F9FFF7B0FC5E
:10401000012038BDFFF750FD054600282DD022684D
:10402000B2F8E000411C0328A2F8E01032D943F2B4
:104030005813C2F2000393F800E0BEF1010F0CBF69
:1040400002200120FFF75CFD012038BD41F237005E
:10405000FEF7E2FE236841F6544493F86520C2F26D
:104060000004002AC7D1FFF707FB2368C3E741F22A
:104070001D00FEF7D1FE012038BDFDF777FF43F2AA
:104080005813C2F20003987041F20100FEF7C4FE1B
:10409000284638BD41F23600FEF7BEFE012038BD8D
:1040A00045F6B83038B5C0F20300FEF7EDFB43F239
:1040B0005813C2F200031B78032B09D0102B07D032
:1040C00041F65444C2F20004216891F8FC0008B99A
:1040D000012038BDFFF7B0FB2068B0F856506A1ECB
:1040E00092B2A0F856201AB9B0F8FE20A0F85620D7
:1040F000AC30002124F024FF054690B1216845F63C
:10410000D830C831C0F20300FEF7BEFB23684FF081
:10411000010CA3F854C0FFF733FF003818BF01208B
:1041200038BD45F66010C0F20300FEF7ADFB28462F
:1041300038BD00BF45F6E83038B5C0F20300FEF7E1
:10414000A3FB43F25813C2F200031B78032B09D0E0
:10415000102B07D041F65444C2F20004216891F8B4
:10416000FC0008B9012038BD0E2003F023FBFFF747
:1041700063FB2068B0F85630B0F8FE505A1C92B27B
:104180009542A0F856203EBF0122A0F856200122F9
:10419000AC30002124F0D4FE054690B1216845F6EC
:1041A000D830C831C0F20300FEF76EFB20684FF034
:1041B000010CA0F854C0FFF7E3FE003818BF01203F
:1041C00038BD45F66010C0F20300FEF75DFB2846DF
:1041D00038BD00BF70B541F65444C2F200042368F4
:1041E00093F8FC20B3F858600AB1B3F8D46045F6F0
:1041F0000840C0F20300FEF747FB43F25810C2F23A
:1042000000000378032B39D00220FEF759FF246801
:1042100041F6544594F85B10C2F2000505290DD90A
:10422000012284F84D20FFF707FB192003F0C2FAA2
:10423000FFF7A6FE003818BF012070BD94F95B306F
:10424000012212FA03F313F0230F0CD113F0180F0D
:10425000E6D01FF043F9314680B210F077FCA4F8A5
:1042600054002C68DCE7B4F85430591E88B2A4F826
:1042700054000028D4D1A4F85460D1E7012070BDC7
:1042800070B541F65444C2F20004236893F8FC2050
:10429000B3F858600AB1B3F8D46045F62840C0F2CC
:1042A0000300FEF7F1FA43F25810C2F2000003785F
:1042B000032B3AD00120FEF703FF246841F6544552
:1042C00094F85B10C2F2000505290DD9002284F88C
:1042D0004D20FFF7B1FA1A2003F06CFAFFF750FEF9
:1042E000003818BF012070BD94F95B30012212FA2A
:1042F00003F313F0230F0CD113F0180FE6D01FF0C7
:10430000EDF8314680B210F021FCA4F854002C687E
:10431000DCE7B4F85410481C1FFA80FC6645A4F88A
:1043200054C038BFA4F85420D0E7012070BD00BFAE
:1043300030B543F25813C2F200031A7883B0511E0D
:10434000CBB2012B21D9A0F58052911E35295ED820
:10435000DFE801F0A15D9D9A97945D5D5D90888096
:104360007C7976726F6B5D5D675D5D5D5D5D635DE4
:104370005D5D5D5D5D5D5D5D5D5D5D60606060605E
:1043800060606060605D5D5D767941F65444C2F2C4
:104390000004226892F80111002926D041F2080E8B
:1043A000704500F0EB8041F20B0C604514BF00211A
:1043B000012141F20202904208BF41F0010169B9B6
:1043C00041F21001884214BF0023012341F20F0E75
:1043D000704508BF43F00103002BB4D003F0C0FCCC
:1043E00000285FD1012003B030BD41F2080C6045C8
:1043F000A9D145F64840C0F20300FEF745FA20680F
:10440000012480F8014103F085FD2046EBE7FDF72C
:1044100073FBE7E7FFF75EFAE5E7FEF773FF0020BF
:10442000E1E7FEF761FF0020DDE7FEF761FE012016
:10443000D9E7FFF7FFF8D6E7FEF7FCFE0020D2E74A
:10444000FFF71EFFCFE7FFF7C5FECCE7FEF734FF0F
:104450000120C8E741F20D00FEF7BCFCFEF7A6FE06
:104460000120C0E741F20C00FEF7B4FCFEF7C0FEED
:104470000120B8E7FEF7E4FF0120B4E7FFF710FEE4
:10448000B1E7FFF757FEAEE7FEF7F8FFABE7FFF740
:1044900061F80120A7E7FFF7CFF91C2003F08AF9A4
:1044A0000120A0E745F67040C0F20300FEF7ECF9EA
:1044B00001AA0DF10601684603F03EFA009945F69F
:1044C00088401C31C0F20300FEF7DEF9009B45F680
:1044D000A4401988C0F20300FEF7D6F9009A45F609
:1044E000BC405188C0F20300FEF7CEF945F6D44037
:1044F000BDF80610C0F20300FEF7C6F945F6EC4021
:10450000BDF80410C0F20300FEF7BEF920680025D4
:1045100080F80151FFF790F92268BDF80430009847
:10452000A2F85430418802F1AC0CA2F8561065464E
:104530008646BEE80F000FC5AC46BEE80F00ACE8EB
:104540000F0075460FCDACE80F0028686346186071
:10455000009923684A88A3F8562093F8FC0030B1EC
:10456000BDF806E0A3F854E0FFF70AFD3BE7BDF80D
:1045700004C0A3F854C0FFF703FD34E745F65C40E0
:10458000C0F20300FEF780F92368002183F80111CF
:10459000012028E72DE9F047804601208A46914610
:1045A000FBF74CFF06460020FBF748FF41F654445A
:1045B000C2F2000423680746002B00F0118143F289
:1045C0005815C2F200052878032800F0E48045F66B
:1045D0002450C0F20300FEF757F9FFF7C9F9FFF7BF
:1045E0002BF9206800214FF4827228F0FDFC002096
:1045F000FEF766FD43F200422368C2F20002100C8F
:104600004FF00001A3F87000A3F86E2083F8A91002
:1046100096F801C00CF07F02012A14BF002001208F
:10462000042A08BF40F0010083F85B20002847D12E
:1046300083F8FC107278C2F3C01C83F864C03B7925
:104640002B7297F803E085F806E0FDF7E9F9B8F179
:10465000FF3F06D0206800210160A0F856A0A0F816
:1046600054802878032800F0A480102808BF26680A
:1046700000F0A280B9F1000F26D0022800F0A2803D
:10468000022006F0A1FC012006F09EFC02F060FB77
:104690000FF0A0FE02F096FB0FF0F0FE80B20028B3
:1046A00040F0AD80022006F0B7FC074660B945F641
:1046B0004C50C0F20300FEF7E7F83846BDE8F0873B
:1046C000012183F8FC10B5E723684FF00107A3F838
:1046D000567006F061FA236883F8E27090F900C022
:1046E000BCF1FF3F08BFA3F8547010D04188A3F875
:1046F000541090F900E04FF47A7106EBCE06F2798F
:1047000096F806C04CEA022E01FB0EF01860B3F8D2
:10471000562003F1AC00002124F080FA002831D0AB
:104720002668B6F8D830002B2CD0A6F858302B7855
:10473000102B41D0002286F80021D6F8DC3096F804
:10474000FC10B3F840C6A6F8FEC071B196F800118F
:10475000002961D02468B4F8562004F1AC0000218F
:1047600024F0EEFB074600287BD02B78032B20D0CB
:10477000012B40D0022B4BD002F016FBA0B1002041
:10478000BDE8F08745F66050C0F20300FEF77CF804
:104790000020BDE8F08745F60450C0F20300FEF7A4
:1047A00073F80020BDE8F087FFF7EAFB0120BDE8C1
:1047B000F0870120BDE8F087012086F8FC0086F82C
:1047C0000001BAE706F000FC012006F0FDFB02F054
:1047D000BFFA02F0F7FA0AF063F980B1012062E74C
:1047E0004FF48270012118F0F3FE43F25815206057
:1047F000C2F20005F6E6172002F0DCFFBCE745F642
:104800003850C0F20300FEF73FF80020BDE8F08703
:10481000162002F0CFFFAFE7B6F8D220B6F854303A
:10482000D01882B206F10C0022F048F886F84C004D
:10483000246841F6544694F84C70C2F20006002FEA
:1048400089D0218AA06C24F0E3F83168A4F85600DE
:10485000CC8901F10C00A1F8544023F01BF8346816
:1048600079E745F66010C0F20300FEF70DF8384610
:10487000BDE8F08710B545F6885041F65444C2F2C1
:104880000004C0F20300FDF7FFFF2068E63009F0E6
:10489000D3FB2368B3F8E420B3F85810914200D357
:1048A00082B943F258124FF00000A3F8E400C2F2BC
:1048B0000002537C03B910BDFEF7BEFFBDE81040F7
:1048C000FFF75EBBFEF7B8FF21684FF0000CB1F8B0
:1048D000E430A1F8E4C0A1F85430BDE81040FFF77F
:1048E0004FBB00BF38B545F6A05041F65444C0F266
:1048F0000300C2F20004FDF7C7FF2068C8B143F20D
:104900005815C2F200052B78032B34D090F8E21032
:1049100081B9FEF791FF206841F6544590F8652073
:10492000C2F20005002A31D118F0CCFF002020602F
:10493000012038BD90F80021B2B990F84C309BB9F5
:1049400006F02AF92368B0F802C0B3F854006045B5
:1049500003D0FFF7B1F800BB236800211960FFF70F
:1049600007F8FEF741FF01E0FFF702F895F800E0D5
:10497000BEF1030FCDD1FEF7FBFF206841F6544591
:1049800090F86520C2F20005002ACDD016F060F83C
:104990002868002380F86530C6E7FFF7A3FADBE755
:1049A0002DE9F04143F25814C2F200044AF64440A3
:1049B000FCF71AFF2378032B00F09D8045F6D050BA
:1049C000C0F20300FDF760FFFFF776F80546002808
:1049D00000F0A080E27943F25813C2F20003002AEB
:1049E00040F0B080012001460246FFF7D3FD0546A6
:1049F000002800F09880E07A43F25813C2F20003D6
:104A0000002800F0A580FEF7B3FA94F8048041F680
:104A10005446B8F1000018BF0120C2F20006FCF7AE
:104A2000A7FA3768002587F80151012043F258188A
:104A3000FEF7C4F9C2F2000841F201070BE041F2AF
:104A40003700FEF7E9F9FFF79BFA41F23600FEF76F
:104A5000E3F9BD4244D0FFF777F83068E63009F05B
:104A60005DFC0A20FEF738FA3368054623B193F857
:104A70005AC0BCF1030F1DD02846FFF759FC00B304
:104A800094F800C045F61860BCF1030FC0F20300B3
:104A9000DFD0FDF7F9FEFFF70FF80028CFD198F827
:104AA0000000FDF713FB88F8020041F20100FEF759
:104AB000B3F9C4E7FFF700F82846FFF739FC0028F0
:104AC000DED194F800E0BEF1030F09D033682BB1BA
:104AD00093F85A20032A47D0042A45D0FEF7ACFEAB
:104AE00045F62860C0F20300FDF7CEFEFFF7FAFEA0
:104AF0000120BDE8F08145F6BC50C0F20300FDF78F
:104B0000C3FE332002F056FEFEF7D6FF054600280E
:104B10007FF460AF45F6E050C0F20300FDF7B4FE4D
:104B20002846BDE8F08145F60060C0F20300FDF7BD
:104B3000ABFEFFF7D7FEFEF7BFFF064668B128467B
:104B4000BDE8F08100210846D971FCF735FE49E740
:104B5000997A587AFCF784FB55E72078FDF7B6FA86
:104B6000A0703046BDE8F08193F8E230002BB5D05C
:104B7000FEF7FEFE3168002281F8E220FEF75CFEBF
:104B8000AEE700BF684620F007018D4601B545F647
:104B90003860C0F20300FDF777FEF8E7684620F0C2
:104BA00007018D4601B545F64860C0F20300FDF7E8
:104BB0006BFEF8E7684620F007018D4601B545F623
:104BC0005860C0F20300FDF75FFEF8E7684620F08A
:104BD00007018D4601B545F66860C0F20300FDF798
:104BE00053FEF8E7684620F007018D4601B545F60B
:104BF0007460C0F20300FDF747FEF8E7684640F234
:104C0000004241F6A83C20F00701C2F20002C2F2C5
:104C1000000C8D46624519B520D245F24000C0F225
:104C200004000468D343114641F8044B6344C3F3C2
:104C300080040423614511D234B1436802F1080EA7
:104C40000B600823E64509D21C58191D9C500B1D0A
:104C50000C5803EB020EE6458C50F5D341F6B83202
:104C600048F20860C2F20002C2F20000824218D28A
:104C7000002113466FEA020E43F8041B0EEB000CF2
:104C80008342CCF380040CD224B1196002F10803F2
:104C9000834206D21A4642F8041B5960131D834210
:104CA000F8D3FCF79FF8BDE819408546704700BF70
:104CB00041F65843C2F200031B684CF6CD42B3F8EC
:104CC000B410CCF6CC4270B4A2FB01454FEAD50C2F
:104CD0001FFA8CF5A2FB056248F21F54C5F2EB14D3
:104CE000A4FB0164D60806EB86020CEB8C06A5EB50
:104CF0004205A1EB46014FF0520C640920223034EA
:104D00003035303183F8A8C045264FF0430C83F886
:104D1000A96083F8AAC083F8AB4083F8AC5083F84D
:104D2000AD1083F8AF2083F8AE2050B95626572136
:104D3000412083F8B26083F8B01083F8B10070BCF2
:104D400070470128FBD133214D20502283F8B21047
:104D500083F8B00083F8B120F1E700BF41F6584373
:104D6000C2F20003186808B900207047D0F8A410F8
:104D70000029F9D06830704740F2784347F6004286
:104D800041F65841C2F20003C2F20102C2F2000130
:104D900000205A6048601A60704700BF704700BF2B
:104DA000704700BF41F65843C2F2000318897047AC
:104DB00010B541F65844C2F20004E36844F6D35CEF
:104DC000C1F2620C2169ACFB0302ACFB0103920946
:104DD000B2EB931F09D0216845F68460C0F203004E
:104DE000A831FDF751FDE068206110BD08B5FFF75F
:104DF00079FD45F69860C0F20300FDF745FD43F2EA
:104E00005812C2F200029078011F18BF01210F282A
:104E10000CBF002301F001035BB141F6A833C2F2DD
:104E2000000318680849907000220A605A601A60EE
:104E300008BD41F6A83304490022C2F200030A600B
:104E40005A601A6008BD00BFB01B002041F6A833AD
:104E5000C2F200030022184640F8042B011D0A602C
:104E60005A60704708B502F02DF808B1012008BD5E
:104E700002F02AF8003818BF012008BD08B541F635
:104E80005840C2F20000036893F87F31012B0AD02A
:104E9000022B01D0002008BD02F016F8D0F101006D
:104EA00038BF002008BD02F00DF8D0F1010038BF76
:104EB000002008BD10B50446022006F085F8012048
:104EC00006F082F8022C21D0012C13D0204606F0E7
:104ED000A3F838B145F6B860C0F20300FDF7D4FC82
:104EE000002010BD45F64C50C0F20300FDF7CCFC8D
:104EF000002010BD09F0D4FD0028E7D145F6385058
:104F0000C0F20300FDF7C0FC002010BD01F020FF3F
:104F10000FF060FA01F056FF0FF0B0FA80B20028EF
:104F2000D4D0EBE738B541F6A832C2F20002147AC9
:104F30000546BDF810C00CB1002038BD43F258142E
:104F40004FF0100EC2F2000441F20100156084F827
:104F500002E051729380A2F806C0FDF75DFF0120C8
:104F600038BD00BF2DE9F04F45F6D060ADB0C0F2BE
:104F7000030041F6A834FDF787FCC2F200044AF6AC
:104F80004440FCF731FC2668002E00F0A08013207E
:104F900002F010FC637A002B00F08D80022B00F0F1
:104FA0008580012B00F0E78005F004FE002800F06A
:104FB000E880A18841F6A835C2F20005002900F07A
:104FC0000681EE88002E40F08C800A4612A83146F9
:104FD00023F024FE002800F01A81BDF87460A18837
:104FE000E68030460022FFF7D5FA0646002800F09A
:104FF0000E8143F25815C2F20005E979002940F00C
:105000000A8101200DF10808FDF7D8FE41F654474A
:1050100008F11403C2F2000741F21D060DF1480B1E
:10502000019341F2021A41F216090A20FDF754FFDA
:105030000090FEF789FD45F61860C0F20300FDF709
:1050400023FCFEF739FD40B341F23700FDF7E4FEE3
:1050500041F23600FDF7E0FE0098FFF769F90028FD
:1050600000F0F180009BB34248D03CD84B457FD044
:10507000009941F2010E71453CD00A20FDF72CFF4A
:105080000090FEF761FD45F61860C0F20300FDF7E1
:10509000FBFBFEF711FD0028D6D12878FDF716F8A6
:1050A000A87041F20100FDF7B7FECDE701F00CFF5B
:1050B000002840F0B68045F60870C0F20300FDF706
:1050C000E3FBFFF793FE00202DB0BDE8F08F45F61F
:1050D000F060C0F20300FDF7D7FBFFF787FE304614
:1050E000F2E7A1887DE7009A524503D041F2061C01
:1050F0006245BDD1FFF77AFE0120E5E7142002F0FA
:1051000059FB3A68B2F85410012998BFB2F8D81088
:10511000481EE080FEF790FB58460021A28823F04D
:105120000FFF002881D03B684046B3F85420594611
:1051300021F0C4FB00283FF478AF45F65470019984
:10514000C0F20300FDF7A0FB404622F0E5FA40461E
:1051500022F0A0FB386845F63072AC30C0F2030292
:10516000002123F001FF41F20F00FDF755FE5CE73F
:105170000F20A870BEE701F0A5FE00287FF414AF51
:1051800099E7022005F020FF012005F01DFF01F046
:10519000DFFD637A022B69D001F014FE607A41F6DC
:1051A000A8350128C2F200055AD0022845D005F0E2
:1051B00033FF064600287FF4FCAE45F64C50C0F2A3
:1051C0000300FDF761FBFFF711FE30467CE71FAFE0
:1051D0003846012223F022FD064620B345F6307200
:1051E0003946C0F2030212A823F0BEFE064600288C
:1051F0003FD0BDF84A10EE88A980002E7FF4F1AEB2
:10520000BDF87460EE80002E3FF4DFAE69E7FFF773
:10521000EDFD304658E700221046EA71FCF7CCFA63
:10522000EFE6637ABDE645F61C70C0F20300FDF7B9
:105230002BFBFFF7DBFD304646E70FF01FF980B28E
:1052400020B9607AB3E7FEF7F7FA53E745F638502E
:10525000C0F20300FDF718FBFFF7C8FD002033E79D
:1052600009F01EFC0028F1D0687A9EE70FF0B2F832
:1052700092E745F63870C0F20300FDF705FBFFF733
:10528000B5FD304620E700BF10B541F65844C2F2E4
:1052900000042389B3F5085F06D247F21841C2F231
:1052A00000010878022800D010BD45F66C70C0F2ED
:1052B0000300FDF7E9FA2068683022F0B3FA04F140
:1052C0001400BDE8104008F093BF00BF08B541F6D8
:1052D0005843C2F200031A6892F88411F9B9B2F87F
:1052E0008601DA6A821842F610308242DA620ED9FA
:1052F0004FF47A7C0CFB02F24CF23B60CBF6376049
:10530000A0FB02CEDA68D96202EBDE31D96045F645
:105310007C70C0F20300FDF7B7FA002008BDD86A20
:1053200041F2391100F590628A42DA62EFD94FF406
:105330007A7101FB02F24CF23B6CCBF6376CACFBA2
:10534000020ED868002200EBDE3145F67C70DA628E
:10535000D960C0F20300FDF797FA002008BD00BF36
:1053600010B5044688B945F68C70C0F20300FDF70D
:105370008BFA41F65843C2F20003186821466830A0
:105380000222BDE8104021F051B810BD38B541F6F9
:105390005844C2F20004236803F16800B3F86A506D
:1053A00022F078FA20682A4600F13401683021F0B2
:1053B00085FA38B1206800216830022221F036F8E1
:1053C00048B938BD45F6B070C0F20300FDF75CFA8D
:1053D0006FF0FB0038BD45F6C470C0F20300FDF766
:1053E00053FA6FF0F90038BD00B55DF804FB00BF5B
:1053F0002DE9F04141F65845C2F200052B68002224
:1054000083F87E210446A169006B01231EF086FF0C
:10541000206B64270A261EF0BBFF00287BD1206B7F
:10542000D0F804391A78522AF5D159784529F2D1A1
:1054300093F802C0BCF1430FEDD193F806E0BEF142
:10544000200FE8D1DA79202AE5D193F808C0BCF121
:105450004D0118BF0121BCF1570F0CBF002201F014
:105460000102002AD7D193F809E0BEF1500C18BF11
:105470004FF0010CBEF1410F0CBF00220CF00102F5
:10548000002AC8D193F80AE0BEF1330118BF012108
:10549000BEF1560F0CBF002201F00102002ABAD162
:1054A000DA781979303AD2B23039C9B2092A94BFC0
:1054B0004FF0000C4FF0010C092988BF4CF0010C93
:1054C0005B79BCF1000FA6D1303BDBB2092BA2D82F
:1054D00006FB01FE07FB02E29B1899B24B1E9BB232
:1054E000C72B9EBF2B6893F87E01024606D992E730
:1054F0009CF8B5805FFA8EF28CF8B68003EB020C54
:1055000002F1FF3E002AF3D1013083F87E0183F8D7
:10551000B610206B7FE7022801D0206B7BE7BDE847
:10552000F08100BF10B54FF4C470012118F050F89D
:1055300041F65844C2F20004206050B100214FF4FB
:10554000C47227F051FD2268012382F87F3118468A
:1055500010BD10BD4EF295510248C0F2010118F085
:1055600013BE00BF840400204EF295510248C0F2E1
:10557000010118F009BE00BFD80400204EF24151CD
:105580000248C0F2010118F0BBBD00BF8404002036
:105590002DE9F04741F6584540F2784680460F46DF
:1055A000C2F20005C2F200062B8941F65844B3F559
:1055B000984F41463A46C2F200040ED8B068FFF751
:1055C00085FE82460028EFD0FFF7D8FF208982446D
:1055D000A4F808A0BDE8F047BCE7BDE8F08700BF2D
:1055E000F8B541F65844C2F2000494F8301015465C
:1055F00019B1042B02D0032B1BD0F8BD2368608E99
:10560000B3F886110F1ABFB2BD42F6DD002600E0E6
:105610000F461548FFF7BCFF20684FF0000CBE197D
:10562000A4F832C0B6B2B0F88611AA1B8A42EFDCE9
:10563000F8BD2068628EB0F886118F1ABFB2BD42E5
:10564000DBDD002600E00F460748FFF7A1FF2068DA
:105650004FF0000CB919A4F832C08EB2B0F8861120
:10566000AB1B8B42EFDCF8BD8C1C002038B5FFF77C
:1056700085FF40F2784344F60002C2F20003C2F212
:10568000010241F65844C2F200040025C3F8B420D8
:105690009A602581FFF75EFFE562E560012038BD75
:1056A00038B5FFF76BFF40F2784344F60002C2F2D0
:1056B0000003C2F2010241F658440025C2F2000480
:1056C000C3F8B4209A602581FFF744FF45F6F470D3
:1056D000C0F20300E562E560FDF7D6F8284638BD64
:1056E0002DE9F04140F27844C2F200042368626878
:1056F000064693420D460DD349F2FF31C2F2010135
:105700005819884209D9A0F5C05082421BD8002000
:10571000BDE8F08159188A42F9D918462A4631461F
:1057200027F03EFB226853192360FFF727FF41F65D
:105730005840C2F200004368ED184560FFF70AFFC9
:105740000120BDE8F081C3F1005707F5CA371846BC
:1057500031463A4627F024FB47F60043C2F20103E4
:10576000C7EB05081846F1194246236027F018FBDD
:1057700023684344D8E700BF4EF241510248C0F2CB
:10578000010118F0BDBC00BFD804002070B541F67F
:105790005844C2F2000406460D46FFF7EDFF2368A9
:1057A0007BB3D3F8A42062B33046683301212A4684
:1057B00021F05EFC064600B945BB2168002684F84E
:1057C0003469D1F880215519C1F88051FFF7CCFE1A
:1057D000304670BD46F22800C0F20300FDF754F8D1
:1057E00094F83409431C5FFA83FCBCF10A0F84F877
:1057F00034C906D141F21C00FDF70EFB2846FDF727
:10580000DDFAFFF7B1FE6FF0FA0070BD642018F00A
:105810003FFCFFF733FB054668B146F20C00C0F2CF
:105820000300FDF731F841F21C00FDF7F5FA3046B0
:10583000FDF7C4FAE5E72268D2F8A4001FF09EFB4A
:105840002168D1F8A400D0F83436092BC2D846F22A
:105850001800C0F20300FDF717F841F21C00FDF735
:10586000DBFA2846FDF7AAFACBE700BFF8B541F608
:105870005844C2F20004238983422AD340F2784577
:10588000C2F20005D5F8B430C3F1005C0CF5CA369D
:10589000864228BF0646B7B239461846FFF776FF5C
:1058A000FFF76CFE2189CF1B2781FFF753FED5F848
:1058B000B42049F2FF30C2F20100B618864284BF1C
:1058C00044F60000C2F20100C5F8B46088BFC5F814
:1058D000B400F8BD2DE9F04141F65845C2F200058B
:1058E0006B68064640F27844C2F20004B342606836
:1058F00001D2BDE8F081C0F1005E0EF5CA37B742B3
:1059000028BF3746B9B2FFF741FF616849F2FF305F
:10591000C2F201007A18F71B824284BF47F60040AA
:10592000C2F20100626088BF60603FB9FFF726FEE7
:1059300069688E1B6E60BDE8F0410BE6B9B2606825
:10594000FFF724FF626849F2FF33C2F20103BF1878
:105950009F4288BF47F6004340F27840C2F2000001
:1059600088BFC2F20103676088BF4360DEE700BF03
:1059700010B541F65844C2F20004FFF7FDFE20685E
:1059800050B1D0F8A4301BB1683021F083FF2068FB
:1059900017F098FF00202060BDE81040E4E500BF4C
:1059A00038B547F218440546C2F2000446F23C00FE
:1059B000C0F2030021782A46FCF766FF2378022B09
:1059C00017D041F65844C2F200042068683021F034
:1059D00061FF43F25812C2F200021179081E18BF8B
:1059E0000120FBF7C5FAFFF7C3FF002084F8300061
:1059F00038BD002DE5D141F65844C2F200042068BC
:105A000000210A46683020F011FD23680020683329
:105A10000121024621F02CFB28B946F27000C0F2A9
:105A20000300FCF731FF45F6F470C0F20300FCF709
:105A30002BFFCAE770B5054646F29000C0F203009E
:105A4000FCF722FFFFF76EFD044620B341F65844F1
:105A5000C2F20004236883F8845101F033FA48B19C
:105A600001202946FFF726FA08B32168012081F8B2
:105A70007F0170BD01F028FA0646A0B12946022038
:105A8000FFF718FA064600282CD02068022280F87A
:105A90007F21012070BD46F2A000C0F20300FCF798
:105AA000F3FE204670BDFFF763FF304670BD46F23F
:105AB000C000C0F20300FCF7E7FE01F005FA06465D
:105AC000B0B129460220FFF7F5F906460028DCD1DF
:105AD00046F2D000C0F20300FCF7D6FEFFF748FF05
