:040000000200713257
:01000B0032C2
:0100130032BA
:01001B0032B2
:0100230032AA
:01002B0032A2
:01003300329A
:01003B003292
:01004300328A
:01004B003282
:01005300327A
:01005B003272
:01006300326A
:03006B000201107F
:0300CA0002006EC3
:03006E000201018B
:1000CD00907F937404F0907F9C7495F0907F96745C
:1000DD0090F0907F94E4F0907F9D747FF0907F97E7
:1000ED00E4F0907F957440F0907F9E7442F0907F85
:1000FD0098E4F0221200CD1204ADD2AF1208E090B8
:10010D00000022C021C0E0C0F0C082C083C007C083
:10011D0006C005C004C003C002C001C000C0D07538
:10012D00D000AF9174EF5FF59112040C907FAB741A
:10013D0001F0907FB4E04402F0D0D0D000D001D0D7
:10014D0002D003D004D005D006D007D083D082D002
:10015D00F0D0E0D02132323232323232323232C04D
:10016D00E0C082C083C007C0D075D000D201AF916E
:10017D0074EF5FF591907FA97404F0D0D0D007D0C3
:10018D0083D082D0E032C0E0C082C083C007C0D02F
:10019D0075D000D200AF9174EF5FF591907FAA7486
:1001AD0004F0D0D0D007D083D082D0E032323232BA
:1001BD0032323232323232AF82747F5FFE24F850E7
:1001CD0003020278EE240A83F582EE240C83F58374
:1001DD00E473EFF306192C3F52650101020202028E
:1001ED000202907FB422EF30E7067DB67E7F800459
:1001FD007DC67E7F8D828E8322EF30E7067DB87EB1
:10020D007F80047DC87E7F8D828E8322EF30E7064E
:10021D007DBA7E7F80047DCA7E7F8D828E8322EFA4
:10022D0030E7067DBC7E7F80047DCC7E7F8D828E07
:10023D008322EF30E7067DBE7E7F80047DCE7E7FFC
:10024D008D828E8322EF30E7067DC07E7F80047D18
:10025D00D07E7F8D828E8322EF30E7067EC27F7F38
:10026D0080047ED27F7F8E828F832290000022AF0A
:10027D008274105FFE74075F4206907FD7EEF074B4
:10028D00204EF022907FE8E0C322907FE8E0FF60EF
:10029D0005BF0246800A907FB4E0FF4401F0803A2A
:1002AD00907FEAE0FEA3E0FF4E7027907FECE0FE2A
:1002BD00A3E08E821201C4AE82AF83EE4F7002C3F3
:1002CD00228E828F83E0FD5305FE8E828F83EDF0AB
:1002DD008008907FB4E0FF4401F0D322907FE8E0E6
:1002ED00FF6005BF02468010907FEAE0FEA3E0FFAD
:1002FD00BE0239BF0036D322907FEAE0FEA3E0FFB5
:10030D004E7027907FECE0FEA3E08E821201C4AE0A
:10031D0082AF83EE4F7002C3228E828F83E0FD4346
:10032D0005018E828F83EDF08002C322D322907F50
:10033D00EAE0A3E0FF907FEAE0FDA3E07E00BF01CD
:10034D0002800DBF02028021BF030280340203EC44
:10035D007ED37F138F06907FD4EEF07ED37F137FF5
:10036D0000907FD5EEF00203EE7EE57F138F0690B1
:10037D007FD4EEF07EE57F137F00907FD5EEF08089
:10038D0060907FECE0FEA3E0FF4E70187E057F14B9
:10039D008F06907FD4EEF07E057F147F00907FD581
:1003AD00EEF0803D907FECE0FEA3E0FFBE092EBF96
:1003BD00042BED1475F002A42459F582741435F054
:1003CD00F583E493FEA3E493FF8E048F058D0490D3
:1003DD007FD4ECF07F00907FD5EEF08004C322C374
:1003ED0022D32275828212027C75820212027C90C7
:1003FD007FB87402F0907FC8E4F0907FC9F022902E
:10040D007FE9E0FF24F3500122EFF5F0240B83F593
:10041D0082E5F0241183F583E473414F5D655D72D0
:10042D007B73889899A9AC0404040404040404049F
:10043D0004040404120291500122907FB4E044019F
:10044D00F022120297500122907FB4E04401F02275
:10045D00907FB4E04401F0221202E94042907FB453
:10046D00E04401F02222907FB4E04401F022120317
:10047D003B402C907FB4E04401F0229013EAE493CA
:10048D00907F00F0907FB57401F022229013F0E47C
:10049D0093907F00F0907FB57401F0221203F0224B
:1004AD00907FDE7404F0907FDF7404F0907FE0E4C1
:1004BD00F0907FE1F0907FA17401F0907FAFE04468
:1004CD0001F0907FAEE04401F0907FAD7404F090A8
:1004DD007FAC7404F0D2E8907FD6740AF09000C817
:0A04ED0012137C907FD67406F022F3
:1013D30012011001FFFFFF4051C21027000101025B
:1013E3000301090220000101048032090400000204
:1013F300FFFFFF00070582024000000705020240CD
:1014030000000403090414034F00700065006E001C
:1014130055004C0049004E004B0014034F00700070
:1014230065006E0055004C0049004E004B000E0352
:101433003000300030003000300031001A034A0021
:101443005400410047002000410064006100700027
:0E14530074006500720009141D1431143F145A
:1004F700E5080424C0F582E4347DF583E0FF30E1AC
:1005070008907F96E0FE54EFF08F06EE30E00890FB
:100517007F96E0FE547FF0EF30E308907F96E0FE91
:100527004410F0EF30E208907F96E0FF4480F0221D
:100537007F00E50824C0F582E4347DF583E0FE24DE
:10054700D550030208A6EE240A83F582EE242F83F2
:10055700F583E473B18AD7B0FAD3A6A6A6A6A6A652
:10056700A6A6A6A6A6A6A6A6A6A6A6A6A6A6A6A624
:10057700A6A6A6A621FA512A639CD5053493A205FF
:1005870006050605060808080808080808080808F0
:1005970008080808080808080808080808080806D6
:1005A700060607070707080808087E05E508042464
:1005B700C0F582E4347DF583E0FFE50804F5828524
:1005C7000927C007C00612091DD006D0070208A8D0
:1005D700E5080424C0F582E4347DF583E02405FEB4
:1005E700E50804F582C007C006120BDED006D00767
:1005F7000208A8E5080424C0F582E4347DF583E009
:10060700FF2405FEE50804F58285093CC007C006FE
:10061700120E79D006D0070208A87E02E508042446
:10062700C0F582E4347DF583E0FD7402250824C01B
:10063700F582E4347DF583E0F50A8D82C007C006B4
:1006470012124AD006D0070208A87E02E508042441
:10065700C0F582E4347DF583E0FC7D007402250853
:1006670024C0F582E4347DF583E0FAE44204EA42EB
:10067700058C828D83C007C0061211DDD006D00716
:100687000208A87E05E5080424C0F582E4347DF558
:1006970083E0FFE50804F58285092DC007C006122F
:1006A7000A67D006D0070208A8E5080424C0F58227
:1006B700E4347DF583E02405FEE50804F582C007F0
:1006C700C006120D14D006D0070208A8E5080424B6
:1006D700C0F582E4347DF583E0FF2405FEE50804D8
:1006E700F582850943C007C006121013D006D0074C
:1006F7000208A87E02E5080424C0F582E4347DF5EB
:1007070083E0FB7402250824C0F582E4347DF58379
:10071700E0F50A8B82C007C006121281D006D00707
:100727000208A87E02E5080424C0F582E4347DF5BA
:1007370083E0FC7D007402250824C0F582E4347D43
:10074700F583E0FAE44204EA42058C828D83C00710
:10075700C006121207D006D0070208A87E02E508D5
:100767000424C0F582E4347DF583E0FC7D00740247
:10077700250824C0F582E4347DF583E0FAE44204D9
:10078700EA42058C828D83C007C006121349D00642
:10079700D0070208A87E02E5080424C0F582E434E5
:1007A7007DF583E0FC7D007402250824C0F582E412
:1007B700347DF583E0FAE44204EA42058C828D83B6
:1007C700C007C00612137CD006D0070208A87E0017
:1007D7007F02C007C0061212CEAC82AD83D006D00E
:1007E7000785098275837E8D03EBF0E509042400F4
:1007F700F582E4347EF5837D00ECF00208A87E02E2
:10080700E5080424C0F582E4347DF583E0FD740235
:10081700250824C0F582E4347DF583E0F50A8D824E
:10082700C007C006121311D006D00780747E05E5F5
:10083700080424C0F582E4347DF583E0FD740225C5
:100847000824C0F582E4347DF583E0F50A740325B6
:100857000824C0F582E4347DF583E0F50B740425A4
:100867000824C0F582E4347DF583E0F50C74052592
:100877000824C0F582E4347DF583E0F50D8D82C050
:1008870007C006121329D006D00780157E01C007BE
:10089700C0061204F7D006D00780067E0180027ECC
:1008A70000EF2509F509AD087F008E037C00EB2DCD
:1008B700FDEC3FFF0DBD00010F907FC9E0FC7B0001
:1008C700C3ED9CEF64808BF063F08095F04002D31A
:1008D70022EE042508F508C32275080075090010E3
:1008E700000280FB907F96E0FF547FF0C202200257
:1008F70007120537920280F6907F96E0FF4480F05A
:10090700E509600B907FB9E509F010010280FB90C3
:100917007FC9E4F080C3E582FF24C0F582E4347D1B
:10092700F583E0F528EF0424C0F582E4347DF583F0
:10093700E0F52974022FFC24C0F582E4347DF583A9
:10094700E0C4540FFB53030FEC24C0F582E4347D5D
:10095700F583E0FC740F5CF52A74032F24C0F5823D
:10096700E4347DF583E0FA74042F24C0F582E4347F
:100977007DF583E0F52BEB60078A0A8B8212124A1A
:10098700907F97E0FB5303F874044BFA7900A8288B
:100997007C0018B8FF011C89067F00C3EE98EF643E
:1009A700808CF063F08095F050347F007E00907F5C
:1009B70097EBF0EFC313FF907F97EAF0907F99E0F2
:1009C700FC30E5034307800EBE080040E1E5272918
:1009D7002400F582E4347EF583EFF00980B0892C9A
:1009E7007F00AC2A7A00C3EA95295040A8297900EC
:1009F70018B8FF01198A057E00EDB50011EEB501A3
:100A07000DEC600A4303021CE52BC313F52B907F03
:100A170097EBF0EFC313FF907F9774044BF0907F31
:100A270099E0FE30E5034307800A80BAAD297E00CE
:100A37007408C39DFDE49EFE8DF005F0EF8002C3B0
:100A470013D5F0FBFFE527252C2400F582E4347E3F
:100A5700F583EFF0EC6008852B0A8C8202124A229C
:100A6700E582FF24C0F582E4347DF583E0F52EEFBF
:100A77000424C0F582E4347DF583E0F52F74022F5A
:100A8700FC24C0F582E4347DF583E0C4540FFB53A6
:100A9700030FEC24C0F582E4347DF583E0FC740F8A
:100AA7005CF53074032F24C0F582E4347DF583E0D0
:100AB700FA74042F24C0F582E4347DF583E0F53120
:100AC700EB60078A0A8B82121281907F97E0FB53B3
:100AD70003F874044BFA753200A82E7C0018B8FF8F
:100AE700011CA9327E00C3E998EE64808CF063F0A4
:100AF7008095F0504C7E007C00907F97EBF079005A
:100B0700C3E9952250030980F7EEC313FE907F9740
:100B1700EAF07900C3E9952250030980F7907F999D
:100B2700E0F930E5034306800CBC080040CBE52D17
:100B370025322400F582E4347EF583EEF005328019
:100B4700987E00AA307900C3E9952F5056A82F7CCC
:100B57000018B8FF011C89057F00EDB50011EFB53E
:100B6700040DEA600A4303021AE531C313F5319015
:100B77007F97EBF07F00C3EF952250030F80F7EECE
:100B8700C313FE907F9774044BF07F00C3EF952249
:100B970050030F80F7907F99E0FF30E5034306800D
:100BA7000980A4AD2F7F007408C39DFDE49FFF8DCE
:100BB700F005F0EE8002C313D5F0FBFEE52D2532DC
:100BC7002400F582E4347EF583EEF0EA600885318F
:100BD7000A8A8202128122E582FF24C0F582E43468
:100BE7007DF583E0F533EF0424C0F582E4347DF529
:100BF70083E0F53474022FFC24C0F582E4347DF5DC
:100C070083E0C4540FFB53030FEC24C0F582E43494
:100C17007DF583E0FC740F5CF53574032F24C0F574
:100C270082E4347DF583E0FA74042F24C0F582E46E
:100C3700347DF583E0F536EB600B8A0A8B82C007BB
:100C470012124AD007907F97E0FB5303F97A00A866
:100C5700337C0018B8FF011C8A017E00C3E998EEB7
:100C670064808CF063F08095F05039EF2A240524D6
:100C7700C0F582E4347DF583E0FE7C00EE30E005CC
:100C870043030180068B0174FE59FB907F97EBF0BD
:100C9700EEC313FE907F9774044BF00CBC08004022
:100CA700DB0A80ABEF2A240524C0F582E4347DF506
:100CB70083E0FEAF357C00C3EC95345044EE30E062
:100CC7000543030180068B0274FE5AFBA9347A00A0
:100CD70019B9FF011A8C007D00E8B50111EDB502C5
:100CE7000DEF600A4303021FE536C313F536907F05
:100CF70097EBF0EEC313FE907F9774044BF00C80D4
:100D0700B6EF600885360A8F8202124A22E582F51D
:100D17003724C0F582E4347DF583E0F538E5370400
:100D270024C0F582E4347DF583E0F5397402253774
:100D3700FC24C0F582E4347DF583E0C4540FFB53F3
:100D4700030FEC24C0F582E4347DF583E0FC740FD7
:100D57005CF53A7403253724C0F582E4347DF583C6
:100D6700E0FA7404253724C0F582E4347DF583E086
:100D7700F53BEB60078A0A8B82121281907F97E01E
:100D8700FB5303F97A00A8387C0018B8FF011C8AC6
:100D9700067F00C3EE98EF64808CF063F08095F0D7
:100DA7005050E5372A240524C0F582E4347DF583C5
:100DB700E0FF7E00EF30E00543030180068B0474FB
:100DC700FE5CFB907F97EBF07C00C3EC9523500310
:100DD7000C80F7EFC313FF907F9774044BF07C00F0
:100DE700C3EC952350030C80F70EBE080040C50ADC
:100DF7008094E5372A240524C0F582E4347DF58301
:100E0700E0FFAE3A7C00C3EC9539505AEF30E0056D
:100E170043030180068B0274FE5AFBA8397A001837
:100E2700B8FF011A8C017D00E9B50011EDB5020D7F
:100E3700EE600A4303021EE53BC313F53B907F9721
:100E4700EBF07D00C3ED952350030D80F7EFC3133F
:100E5700FF907F9774044BF07D00C3ED95235003FB
:100E67000D80F70C80A0EE6008853B0A8E82021287
:100E77008122E582FF24C0F582E4347DF583E0F525
:100E87003DEF0424C0F582E4347DF583E0F53E743C
:100E9700022FFC24C0F582E4347DF583E0C4540FAF
:100EA700FB53030FEC24C0F582E4347DF583E0FCAB
:100EB700740F5CF53F74032F24C0F582E4347DF58D
:100EC70083E0FA74042F24C0F582E4347DF583E0CF
:100ED700F540EB600B8A0A8B82C00712124AD007D3
:100EE700907F97E0FB5303F97A00A83D7C0018B880
:100EF700FF011C8A017E00C3E998EE64808CF063D1
:100F0700F08095F0505CEF2A240524C0F582E43484
:100F17007DF583E0F5417C007900E54130E005434C
:100F2700030180068B0074FE58FB907F97EBF0E57A
:100F370041C313F541907F9774044BF0ECC313FC46
:100F4700907F99E0F830E50343048009B908004031
:100F5700C9E53C2A2400F582E4347EF583ECF00AE7
:100F670080888A01EF2A240524C0F582E4347DF5C0
:100F770083E0F5417C00AF3F754200C3E542953EF3
:100F87005057E54130E00543030180068B0074FEAE
:100F970058FBA83E7D0018B8FF011DAA427E00EA53
:100FA700B50011EEB5050DEF600A4303021FE540DA
:100FB700C313F540907F97EBF0E541C313F54190DC
:100FC7007F9774044BF0ECC313FC907F99E0FE30DD
:100FD700E503430480054280A2AD3E7E007408C34A
:100FE7009DFDE49EFE8DF005F0EC8002C313D5F065
:100FF700FBFCE53C292400F582E4347EF583ECF024
:10100700EF600885400A8F8202124A22E582F54482
:1010170024C0F582E4347DF583E0F545E5440424F6
:10102700C0F582E4347DF583E0F54674022544FC7F
:1010370024C0F582E4347DF583E0C4540FFB5303E9
:101047000FEC24C0F582E4347DF583E0FC740F5C7B
:10105700F5477403254424C0F582E4347DF583E025
:10106700FA7404254424C0F582E4347DF583E0F561
:1010770048EB60078A0A8B82121281907F97E0FB08
:101087005303F97A00A8457C0018B8FF011C8A06AB
:101097007F00C3EE98EF64808CF063F08095F0508A
:1010A70074E5442A240524C0F582E4347DF583E001
:1010B700F5497E007C00E54930E0054303018006E1
:1010C7008B0074FE58FB907F97EBF07800C3E89590
:1010D7002450030880F7E549C313F549907F9774B7
:1010E700044BF07800C3E8952450030880F7EEC35B
:1010F70013FE907F99E0F830E5034306800CBC08A7
:101107000040B3E5432A2400F582E4347EF583EEFC
:10111700F00A02108C8A04E5442A240524C0F582CB
:10112700E4347DF583E0F5497E00AA47754A00C39C
:10113700E54A9546506DE54930E0054303018006D1
:101147008B0174FE59FBA9467D0019B9FF011DA843
:101157004A7F00E8B50111EFB5050DEA600A4303C0
:10116700021AE548C313F548907F97EBF07F00C359
:10117700EF952450030F80F7E549C313F549907F96
:101187009774044BF07F00C3EF952450030F80F74B
:10119700EEC313FE907F99E0FF30E5034306800519
:1011A7004A808CAD467F007408C39DFDE49FFF8D88
:1011B700F005F0EE8002C313D5F0FBFEE5432C24C7
:1011C70000F582E4347EF583EEF0EA600885480A8C
:1011D7008A8202128122AE82AF83907F97E0FD530D
:1011E70005FB74044DFC7A007B00C3EA9EEB9F501D
:1011F7000E907F97EDF0ECF00ABA00EE0B80EB2231
:10120700AE82AF83907F97E0FD5305FB74044DFCDE
:101217007A007B00C3EA9EEB9F5027907F97EDF003
:101227007900C3E9952550030980F7907F97ECF083
:101237007900C3E9952550030980F70ABA00D50B51
:1012470080D222AF82907F97E0FE5306FB7D00C3DA
:10125700ED9F5025E50A30E00543060280068E041F
:1012670074FD5CFE907F97EEF0E50AC313F50A90D4
:101277007F9774044EF00D80D622AF82907F97E05F
:10128700FE5306FB7D00C3ED9F503BE50A30E005AA
:1012970043060280068E0474FD5CFE907F97EEF095
:1012A7007C00C3EC952650030C80F7E50AC313F5C1
:1012B7000A907F9774044EF07C00C3EC9526500388
:1012C7000C80F70D80C0227F00907F99E0FE30E50B
:1012D700027F01907F99E0FE30E603430702907F8B
:1012E7009AE0FE30E703430704907F9BE0FE30E57A
:1012F70003430708907F9AE0FE53067F8F05E4FFBC
:10130700FCEE4FF582EC4DF58322E582547FF4FF26
:10131700907F97E05FF0747F550AFF907F97E04FCB
:10132700F022858222850A23850B24850C25850DCD
:10133700262200227E567F021EBEFF011FEE4F703F
:10134700F722750A05750B001213A6AE82AF837CD0
:10135700007D00C3EC9EED9F501AC007C006C00574
:10136700C004121339D004D005D006D0070CBC0036
:10137700E20D80DF22AE82AF837C007D00C3EC9E4E
:10138700ED9F501AC007C006C005C00412133BD01A
:0F13970004D005D006D0070CBC00E20D80DF2289
:03004300021B009D
:101B0000020110000201630002016400020165008D
:101B1000020166000201670002016800020169001B
:101B200002016A0002016B0002016C0002019300D5
:101B30000201BA000201BB000201BC000201BD00AB
:101B40000201BE000201BF000201C0000201C1008B
:081B50000201C2000201C30002
:1013A6007A10E4FBFCE58225E0F582E58333F583DC
:1013B600EB33FBEC33FCEB950AF5F0EC950B4006B2
:0913C600FCABF0438201DADD22E8
:0600A000E478FFF6D8FD34
:10007E007900E94400601B7A009014617800759253
:10008E0020E493F2A308B800020592D9F4DAF275CF
:02009E0092FFCF
:1000A6007800E84400600A7900759220E4F309D8E4
:1000B600FC7800E84400600C7900902000E4F0A38E
:0400C600D8FCD9FA8F
:0D00710075814A1213CFE582600302006E14
:0413CF007582002201
:00000001FF
